:1000000045C0000060C000005EC000005CC0000091
:100010005AC0000058C0000056C0000054C0000084
:1000200052C0000050C000004EC000004CC0000094
:100030004AC0000048C0000046C0000044C00000A4
:100040001FC1000040C000003EC000003CC00000D6
:100050003AC0000038C0000036C0000034C00000C4
:1000600032C0000030C000002EC000002CC00000D4
:100070002AC0000028C0000026C0000024C00000E4
:1000800022C0000020C000001EC0000011241FBEBE
:10009000CFEFD0E1DEBFCDBF11E0A0E0B1E0EEE8F0
:1000A000F4E000E00BBF02C007900D92AE3DB10737
:1000B000D9F721E0AEEDB1E001C01D92AB3FB20730
:1000C000E1F711D1E2C19CCF81B3877881BB08955C
:1000D000CF92DF92EF92FF9220B330E002C03595CD
:1000E00027956A95E2F731E020FF30E0232FFC01ED
:1000F000EE50FE4F40813417B9F0FC01EE50FE4F38
:1001000030834091F6015091F7016091F8017091B0
:10011000F901FC01EE0FFF1FEE0FFF1FEE51FE4F26
:1001200040835183628373834091F6015091F701BC
:100130006091F8017091F901FC01EE0FFF1FEE0FC5
:10014000FF1FEE51FE4FC080D180E280F3804C193A
:100150005D096E097F09443151056105710578F02B
:10016000FC01E252FE4F3081231761F0FC01E252A4
:10017000FE4F2083211109C081E090E008C080E09B
:1001800090E005C080E090E002C080E090E0FF9049
:10019000EF90DF90CF90089530C087EE93E090937A
:1001A00087008093860086E490E002D18091FA0176
:1001B000811127C083EF91E09093870080938600A0
:1001C00086E490E0F5D08091FA0181111AC08CE4A8
:1001D00091E0909387008093860086E490E0E8D0D9
:1001E0008091FA0181110DC089EF90E09093870012
:1001F0008093860086E490E0DBD08091FA0188232A
:1002000061F21092870010928600089530C086EF48
:100210009EE0909387008093860086E490E0C8D0AB
:100220008091FA01811127C08EED9BE090938700A9
:100230008093860086E490E0BBD08091FA01811122
:100240001AC086EF99E0909387008093860086E439
:1002500090E0AED08091FA0181110DC08CE097E062
:10026000909387008093860086E490E0A1D08091EF
:10027000FA01882361F21092870010928600089597
:100280001F920F920FB60F9211248F939F93AF93EB
:10029000BF9386E082BF8091F6019091F701A09113
:1002A000F801B091F9010196A11DB11D8093F601ED
:1002B0009093F701A093F801B093F901BF91AF912A
:1002C0009F918F910F900FBE0F901F90189586E011
:1002D00082BF83B7887F83BF83B7846083BF87B7BC
:1002E000816087BF0895F3DFEFDE52D0789463E03A
:1002F00070E080E090E0ECDE892B89F01092030141
:100300001092020183E090E090930101809300013C
:100310001092FA0141DF109287001092860064E08B
:1003200070E081E090E0D4DE892B99F081E090E0EC
:10033000909303018093020184E090E09093010187
:10034000809300011092FA0161DF109287001092F1
:10035000860065E070E082E090E0BADE892B39F239
:1003600082E090E0909303018093020185E090E0A9
:1003700090930101809300011092FA0162E771E00D
:1003800084E091E03AD01092870010928600AFCFBF
:1003900082B1886082B980E480938B008AE0809388
:1003A0008A0010928C0010928700109286000895A7
:1003B000CF93DF931BC08FE99FE00197F1F700C057
:1003C00000008091020190910301992374F06091E3
:1003D000000170910101809102019091030178DE8A
:1003E000892B19F081E08093FA01CE01EC0121976D
:1003F000892B09F7DF91CF910895EF92FF920F9328
:100400001F93CF93DF93EC018B011092FA012CC064
:100410002091FA01222329F0109287001092860081
:100420002DC0009749F41092870010928600F801C1
:1004300080819181BDDF15C00F2EF6E8EF2EF12CE3
:10044000F02DF70191838083F80180819181B0DFE5
:10045000F701118210828FE39CE90197F1F700C048
:10046000000022960E5F1F4F888199818F3FEFEF2A
:100470009E0771F61092870010928600DF91CF914F
:0E0480001F910F91FF90EF900895F894FFCF19
:10048E00FFFFFFFF53037E02A402F6025303F403A1
:10049E00BC035303F6027004F403BC03F4035303CA
:1004AE0053037E02A402F60253037E027E0238023A
:1004BE007E02A402F602A4027E02BC03CC02F60265
:1004CE005303BC0370043104BC035303FC047004D7
:1004DE0031047004BC03BC03CC02F6025303BC030C
:1004EE00CC02CC027E02CC02F6025303F602CC0200
:1004FE00FFFF5501AA00AA00AA0055015501AA0046
:10050E00AA00AA00AA00AA00AA0055015501550189
:10051E00AA00AA00AA0055015501AA00AA00AA0025
:10052E00AA00AA00AA00AA025501AA00AA00AA00BF
:10053E0055015501AA00AA00AA00AA00AA00AA0005
:10054E00550155015501AA00AA00AA0055015501F1
:0E055E00AA00AA00AA00AA00AA00AA00AA02E7
:00000001FF
