S00F000030342E554152542E7372656347
S113000045C0000060C000005EC000005CC000008D
S11300105AC0000058C0000056C0000054C0000080
S113002052C0000050C000004EC000004CC0000090
S11300304AC0000048C0000046C0000044C00000A0
S113004047C0000040C000003EC000003CC00000AB
S11300503AC0000038C0000036C0000034C00000C0
S113006032C0000030C000002EC000002CC00000D0
S11300702AC0000028C0000026C0000024C00000E0
S113008022C0000020C000001EC0000011241FBEBA
S1130090CFEFD0E1DEBFCDBF11E0A0E0B1E0E6EEEE
S11300A0F1E000E00BBF02C007900D92A431B1074C
S11300B0D9F721E0A4E1B1E001C01D92AE31B2074D
S11300C0E1F73AD08EC09CCF81B3877881BB089585
S11300D01F920F920FB60F9211248F939F93AF9399
S11300E0BF9386E082BF8091140190911501A09185
S11300F01601B09117010196A11DB11D8093140141
S113010090931501A0931601B0931701BF91AF917D
S11301109F918F910F900FBE0F901F90189586E0BE
S113012082BF83B7887F83BF83B7846083BF87B769
S1130130816087BF78940895F2DF14D080E091E065
S113014090931B0180931A01BFDF8EE091E019D0D8
S11301502FEF83ED90E3215080409040E1F700C001
S11301600000F3CF109290008FEC89B98BB18260BC
S11301708BB98AB188698AB908955D9BFECF8CB921
S113018008950F931F93CF93DF93E0911A01F09199
S11301901B01238121FF1BC08C01D0E0C0E0F801CA
S11301A081918F0160911A0170911B01DB011896F6
S11301B0ED91FC911997882331F00995892B79F3F6
S11301C0DFEFCFEFECCF8AE00995892B19F08FEFA1
S11301D09FEF02C08D2F9C2FDF91CF911F910F9124
S10901E00895F894FFCF1E
S11301E60000000200000000BD00000000003835D9
S10701F6343000009D
S9030000FC
