S00F00004C43445F43414C2E7372656313
S113000045C0000061C000005FC000005DC000008A
S11300105BC0000059C0000057C0000055C000007C
S113002053C0000051C000004FC000004DC000008C
S11300304BC0000049C0000047C0000045C000009C
S11300402DC5000041C0000049C600003DC00000AD
S11300503BC0000039C0000037C0000035C00000BC
S113006033C0000031C000002FC000002DC00000CC
S11300702BC0000029C0000027C0000025C00000DC
S113008023C0000021C000001FC0000011241FBEB7
S1130090CFEFD0E1DEBFCDBF11E0A0E0B1E0EAEAEE
S11300A0F5E100E00BBF02C007900D92AA3CB10736
S11300B0D9F725E0AAECB1E001C01D92A138B2073E
S11300C0E1F764D50C94D30A9BCF81B3877881BBC5
S11300D00895CF92DF92EF92FF9220B330E002C0F6
S11300E0359527956A95E2F731E020FF30E0232F1C
S11300F0FC01E252FE4F40813417B9F0FC01E25298
S1130100FE4F30834091E9015091EA016091EB0187
S11301107091EC01FC01EE0FFF1FEE0FFF1FE25385
S1130120FE4F40835183628373834091E901509170
S1130130EA016091EB017091EC01FC01EE0FFF1FED
S1130140EE0FFF1FE253FE4FC080D180E280F380A8
S11301504C195D096E097F0944315105610571052A
S113016078F0FC01E653FE4F3081231761F0FC0167
S1130170E653FE4F2083211109C081E090E008C0BE
S113018080E090E005C080E090E002C080E090E074
S1130190FF90EF90DF90CF900895AC0120E030E025
S11301A009C0983211F43F5F04C0993211F4315000
S11301B072F02F5FFA01E20FF11D27FDFA9590818D
S11301C09111EFCF81E0332319F080E0089580E0AE
S11301D008958B3241F08D3241F08A3241F08F32F2
S11301E041F482E0089581E0089581E0089582E079
S11301F0089580E00895CF92DF92EF92FF920F93DB
S113020069017A010B3249F018F40A3281F028C0EE
S11302100D3241F00F3289F023C0620F731F841F27
S1130220951F21C0621B730B840B950B1CC09B0193
S1130230AC01C701B601FED516C021153105410533
S1130240510551F483E391E095D681E08093E70171
S113025060E070E0CB0107C00FD6CA01B90103C04A
S113026060E070E0CB010F91FF90EF90DF90CF90B2
S113027008951F93CF93DF93CDB7DEB761970FB681
S1130280F894DEBF0FBECDBF9F938F937F936F9380
S113029084E491E09F938F931F9281E18F93CE0129
S11302A001969F938F9396D660E081E0EDD30FB6CD
S11302B0F894DEBF0FBECDBF10E003C080E261D36F
S11302C01F5F1031D8F360E081E0DED3CE010196E8
S11302D0C9D361960FB6F894DEBF0FBECDBFDF91D0
S11302E0CF911F9108950F931F93CF938C0160E0DA
S11302F081E0CAD3C0E003C080E243D3CF5FC03102
S1130300D8F360E081E0C0D3C801ACD3CF911F9192
S11303100F9108950F931F93CF938C01FC010190CB
S11303200020E9F73197E81BF90BE13120F0FF27B2
S113033070970E0F1F1F60E080E0A6D3C0E003C0DB
S113034080E21FD3CF5FC031D8F360E080E09CD35C
S1130350C80188D3CF911F910F9108957F928F92F6
S11303609F92AF92BF92CF92DF92EF92FF920F9340
S11303701F93CF93DF93CDB7DEB7C055D1090FB626
S1130380F894DEBF0FBECDBF7C011092E701D12CE3
S11303901FEFCC24CA94E3C090ED980F9A3000F17B
S11303A03CC0880F991FAA1FBB1F4C015D01880C1C
S11303B0991CAA1CBB1C880C991CAA1CBB1C880D6C
S11303C0991DAA1DBB1D50E040535109052E000C78
S11303D0660B770B840F951FA61FB71FD39403C01A
S11303E080E090E0DC01F701ED0DF11DD7FCFA95FA
S11303F0408120ED240F2A30A0F2C394E1E0F0E024
S1130400EC0FFD1F2C2D34E02302E00DF11D11240F
S113041080839183A283B383A2C0883261F41F5F77
S1130420E1E4F0E0EC0FFD1FE10FF11D17FDFA957B
S11304308083D39494C08932D1F529C099249A94A5
S11304409C0CE1E0F0E0EC0FFD1F8C2D94E08902A0
S1130450E00DF11D11242081318142815381AA24B0
S1130460A394B12CAC0EBD1EE92DF4E0EF02A00C58
S1130470B11C1124F5016081718182819381115035
S1130480BADEF5016083718382839383C92C1123BF
S11304905CF0E1E4F0E0EC0FFD1FE10FF11D17FD4E
S11304A0FA950081083251F61150D39458C08B321A
S11304B089F18D3279F18A3269F18F3209F04EC0B7
S11304C029C077247A947C0CE1E0F0E0EC0FFD1F66
S11304D02C2D34E02302E00DF11D11242081318103
S11304E042815381AA24A394B12CAC0EBD1E872D46
S11304F094E08902A00CB11C1124F5016081718182
S113050082819381115077DEF50160837183828348
S11305109383C72C1123A4F0E1E4F0E0EC0FFD1F5A
S1130520E10FF11D17FDFA950081083249F0802F83
S113053050DEB82EF40180814CDEB81608F0C1CF2D
S11305401F5FF4018081E1E4F0E0EC0FFD1FE10F97
S1130550F11D17FDFA958083D39401C0D39447010C
S11305608D0C911CD7FC9A94F4018081811114CFD5
S113057035C0DD24DA94DC0CE1E0F0E0EC0FFD1F83
S11305802C2D34E02302E00DF11D11242081318152
S113059042815381EE24E394F12CEC0EFD1E8D2D4B
S11305A094E08902E00CF11C1124F701608171814F
S11305B082819381CC24CA94C10EE1E4F0E0EC0F73
S11305C0FD1FE10FF11D17FDFA95008114DEF701FF
S11305D060837183828393831C2DCD2C11234CF66D
S11305E0E1E0F0E0EC0FFD1F2C2D34E02302E00DE0
S11305F0F11D11246081718182819381C05BDF4F81
S11306000FB6F894DEBF0FBECDBFDF91CF911F911F
S11306100F91FF90EF90DF90CF90BF90AF909F909D
S11306208F907F90089520E2FC0111922A95E9F7BA
S1130630FC0110A288E491E09DD4DFC10895CF921B
S1130640DF92EF92FF920F931F93CF93DF93CDB777
S1130650DEB761970FB6F894DEBF0FBECDBF8C0135
S1130660633411F4E0DFBFC06D3309F067C0DC010F
S113067090968C91811104C08EE491E07BD4B3C038
S1130680802F912F8ADD81110FC01F930F938BE56B
S113069091E09F938F935BD485E791E024DE0F90E4
S11306A00F900F900F909FC01F930F938FE791E0CF
S11306B09F938F934CD4802F912F50DEC62ED72E2C
S11306C0E82EF92EC80126DE8091E7010F900F90E5
S11306D00F900F90882349F08BE791E04BD48BE780
S11306E091E001DE1092E2011FC0FF92EF92DF92CF
S11306F0CF9283E891E09F938F9329D46C2D7D2D25
S11307008E2D9F2DB6DDC092E301D092E401E092DC
S1130710E501F092E60181E08093E2010F900F90F1
S11307200F900F900F900F90E02FF12F80E2DF01D8
S11307301D928A95E9F7F80110A255C0683449F56D
S11307408091E201811104C088E891E0CCDD4BC0C6
S11307508091E6018F938091E5018F938091E4016C
S11307608F938091E3018F9382E991E09F938F931C
S11307701F9281E18F938E010F5F1F4F1F930F9381
S113078029D4C801B0DD0FB6F894DEBF0FBECDBFCB
S11307902AC0683091F4DC0190968C91909788235C
S11307A011F1815090968C93F801E80FF11D10829D
S11307B0C801E0D3C801AEDD16C0FC0180A18F31B1
S11307C078F491E0980F90A3E80FF11D6083F8018D
S11307D0E90FF11D1082C801CDD3C8019BDD03C010
S11307E088E991E0C7D361960FB6F894DEBF0FBED7
S11307F0CDBFDF91CF911F910F91FF90EF90DF90CC
S1130800CF9008958FE08ABB8FEF8BBB0895CF9371
S1130810DF93CDB7DEB760970FB6F894DEBF0FBE97
S1130820CDBF20E1E3E2F1E0DE01119601900D92EB
S11308302A95E1F72FEF2BBB4BB3E3E0F0E0E61B87
S1130840F70B21E030E002C0220F331FEA95E2F7F4
S1130850209524232BBB20E030E002C02F5F3F4FC4
S113086024313105DCF349B3FC01349621E030E056
S11308700E2E02C0220F331F0A94E2F750E0242305
S1130880352302C035952795EA95E2F7211118C062
S1130890FC01EE0FFF1FEE0FFF1FE050FF4FE60FAE
S11308A0F71F3081313061F4880F991F880F991F29
S11308B080509F4FFC01E60FF71F108280E027C095
S11308C0213011F5FC01EE0FFF1FEE0FFF1FE0506A
S11308D0FF4FE60FF71F2081211118C0880F991FC1
S11308E0880F991FFC01E050FF4FE60FF71F21E02E
S11308F0208321E030E02C0F3D1F820F931FFC0169
S1130900E60FF71F808103C080E001C080E060969D
S11309100FB6F894DEBF0FBECDBFDF91CF9108951F
S11309200F931F93CF93DF9300E010E00EC0BE013E
S1130930C8016DDF81110DC0219602C0C0E0D0E076
S1130940C430D105A4F30F5F1F4F04301105B4F375
S113095080E0DF91CF911F910F91089588B3806853
S113096088BB8FE99FE00197F1F700C0000088B3CE
S11309708F7788BB8FE99FE00197F1F700C00000F3
S11309800895CF93C82F88B3806288BB80911001EB
S1130990883019F4C5BBE2DF0AC08C2F807F85BB89
S11309A0DDDF20E1C29FC001112485BBD7DF8FE3C7
S11309B09FE10197F1F700C00000CF910895CF9314
S11309C0C82F88B38F7D88BB80911001883019F4BB
S11309D0C5BBC4DF0AC08C2F807F85BBBFDF20E18D
S11309E0C29FC001112485BBB9DF8FE39FE101974A
S11309F0F1F700C00000CF91089581E0E0DF8FE3BC
S1130A009FE10197F1F700C0000008952FEF80E700
S1130A1092E0215080409040E1F700C000008091B6
S1130A201001883021F484B38FEF84BB03C084B3F6
S1130A30806F84BB15BA87B3806E87BB88B38F7B06
S1130A4088BB80911001883019F488E3B8DF04C0B2
S1130A5082E0B5DF88E2B3DF8CE0B1DFCEDF86E091
S1130A60AECF08950F931F93CF938C01C0E002C0C3
S1130A7088DFCF5FF801EC0FF11D80818111F8CF81
S1130A80CF911F910F9108956F70817090E4899FA9
S1130A90600D1124862F805892CF08951F920F92D3
S1130AA00FB60F9211240BB60F922F933F934F93CF
S1130AB05F936F937F938F939F93AF93BF93EF93C2
S1130AC0FF93CF93DF931F92CDB7DEB7198286E0F1
S1130AD082BF8091E9019091EA01A091EB01B0916C
S1130AE0EC010196A11DB11D8093E9019093EA01E7
S1130AF0A093EB01B093EC018091ED019091EE0194
S1130B00A091EF01B091F0010196A11DB11D809358
S1130B10ED019093EE01A093EF01B093F001CC9717
S1130B20A105B10588F01092ED011092EE0110922A
S1130B30EF011092F001F4DE8983882329F0898182
S1130B40B2D081E08093E8010F90DF91CF91FF91C3
S1130B50EF91BF91AF919F918F917F916F915F9131
S1130B604F913F912F910F900BBE0F900FBE0F909E
S1130B701F90189586E082BF83B7887F83BF83B7B1
S1130B80846083BF87B7816087BF0895CF93DF9365
S1130B90CDB7DEB7A1970FB6F894DEBF0FBECDBFB9
S1130BA0E9DF39D12FDE91DA31DFCE0101963BDD69
S1130BB081E191E090937E0580937D057894809106
S1130BC0E801882329F01092E801AADE81116BD094
S1130BD063E070E080E090E07CDA892B11F088E437
S1130BE062D064E070E081E090E073DA892B11F068
S1130BF083E459D065E070E082E090E06ADA892B02
S1130C0011F088E250D066E070E083E090E061DAB1
S1130C10892B11F089E247D01DD0892B81F62BD086
S1130C20682FCE0101960BDDCACF80911F019091F0
S1130C302001019664E670E00CD1209121013091ED
S1130C4022018217930719F481E090E0089580E06F
S1130C5090E0089520911F0130912001809121019D
S1130C60909122012817390719F481E090E0089542
S1130C7080E090E00895EEDF892B21F088EA91E08E
S1130C8079C108958091210190912201019664E631
S1130C9070E0DFD09093220180932101FC01E950A0
S1130CA0FE4F80810895CF93C82FBFDF892B21F099
S1130CB08BEB91E05FD110C080911F0190912001D6
S1130CC0019664E670E0C5D09093200180931F01E3
S1130CD0FC01E950FE4FC083CF9108951F920F92FB
S1130CE00FB60F9211240BB60F922F933F934F938D
S1130CF05F936F937F938F939F93AF93BF93EF9380
S1130D00FF93CF93DF931F92CDB7DEB78CB1898366
S1130D1089818A3019F089818D30C1F58091F5017E
S1130D209091F60101962AE030E0B90192D0FC01DD
S1130D308091F3019091F401B9018BD0E817F90780
S1130D4009F453C02091F5013091F6018091F1012D
S1130D509091F20140E5429FF001439FF00D112470
S1130D60E55AFD4FE80FF91F10821092F20110921C
S1130D70F1018091F5019091F60101966AE070E02D
S1130D8068D09093F6018093F5012FC08091F5010E
S1130D909091F60101962AE030E0B9015AD0FC01A5
S1130DA08091F3019091F401B90153D0E817F90748
S1130DB0E1F06091F5017091F6018091F10190915B
S1130DC0F2019C012F5F3F4F3093F2012093F10118
S1130DD0498150E5569F9001579F300D1124255AA3
S1130DE03D4FF901E80FF91F40830F90DF91CF9138
S1130DF0FF91EF91BF91AF919F918F917F916F91EF
S1130E005F914F913F912F910F900BBE0F900FBEAA
S1130E100F901F901895109290008FEC89B98BB1A8
S1130E2082608BB98AB188698AB908955D9BFECFC7
S1130E308CB90895DB018F939F933AD0BF91AF9102
S1130E40A29F800D911DA39F900DB29F900D112420
S1130E50089597FB072E16F4009406D077FD08D06A
S1130E6031D007FC05D03EF4909581959F4F0895AD
S1130E70709561957F4F0895052E97FB16F40094A5
S1130E800FD057FD05D032D007FC02D046F408C07D
S1130E9050954095309521953F4F4F4F5F4F0895A2
S1130EA090958095709561957F4F8F4F9F4F0895D2
S1130EB03FD0A59F900DB49F900DA49F800D911DD0
S1130EC011240895AA1BBB1B51E107C0AA1FBB1F15
S1130ED0A617B70710F0A61BB70B881F991F5A95C2
S1130EE0A9F780959095BC01CD010895A1E21A2E31
S1130EF0AA1BBB1BFD010DC0AA1FBB1FEE1FFF1FBA
S1130F00A217B307E407F50720F0A21BB30BE40B09
S1130F10F50B661F771F881F991F1A9469F7609550
S1130F207095809590959B01AC01BD01CF0108950A
S1130F30A29FB001B39FC001A39F700D811D112416
S1130F40911DB29F700D811D1124911D0895CF93A1
S1130F50DF93CDB7DEB7AE014B5F5F4FFA0161910E
S1130F607191AF0180917D0590917E056FD0DF91E5
S1130F70CF9108950F931F93CF93DF93E0917D0555
S1130F80F0917E05238121FF1BC08C01D0E0C0E0DD
S1130F90F80181918F0160917D0570917E05DB01DF
S1130FA01896ED91FC911997882331F00995892BB6
S1130FB079F3DFEFCFEFECCF8AE00995892B19F0B5
S1130FC08FEF9FEF02C08D2F9C2FDF91CF911F9148
S1130FD00F9108950F931F93CF93DF93CDB7DEB78F
S1130FE02E970FB6F894DEBF0FBECDBF0D891E89B4
S1130FF08F89988D26E02C831A83098397FF02C07A
S113100080E090E801979E838D83AE01455E5F4F3B
S1131010698D7A8DCE01019619D04D815E8157FD7F
S11310200AC02F813885421753070CF49A01F8013E
S1131030E20FF31F10822E960FB6F894DEBF0FBE98
S1131040CDBFDF91CF911F910F9108952F923F92C1
S11310504F925F926F927F928F929F92AF92BF92C4
S1131060CF92DF92EF92FF920F931F93CF93DF9370
S1131070CDB7DEB72B970FB6F894DEBF0FBECDBF4A
S11310806C017B018A01FC0117821682838181FF36
S1131090BFC1CE0101963C01F6019381F70193FD96
S11310A0859193FF81917F01882309F4ADC1853235
S11310B039F493FD859193FF81917F01853221F469
S11310C0B60190E0D6D1E8CF912C212C312CFFE150
S11310D0F315D8F08B3279F038F4803279F083321A
S11310E0A1F4232D20611DC08D3261F0803369F499
S11310F0232D216016C0832D8260382EE32DE460F9
S11311003E2E2AC0F32DF8601DC037FC2DC020ED03
S1131110280F2A3040F08E32B9F436FC75C1232DE5
S11311202064322E19C036FE06C08AE0989E200D37
S11311301124922E11C0EAE02E9E200D1124222E9D
S1131140F32DF0623F2E08C08C3621F4832D806885
S1131150382E02C0883641F4F70193FD859193FF40
S113116081917F018111B3CF982F9F7D9554933046
S113117028F40C5F1F4F9FE399830DC0833631F031
S1131180833771F0833509F055C020C0F8018081A0
S113119089830E5F1F4F88248394912C530112C0BE
S11311A02801F2E04F0E511CF801A080B18036FEF8
S11311B003C0692D70E002C06FEF7FEFC5014ED10F
S11311C04C018201F32DFF773F2E15C0280122E048
S11311D0420E511CF801A080B18036FE03C0692D77
S11311E070E002C06FEF7FEFC5012DD14C01F32DEC
S11311F0F0683F2E820133FC19C0822D90E08816DE
S11312009906A0F4B60180E290E033D12A94F5CF98
S1131210F50137FC859137FE81915F01B60190E0BD
S113122028D121102A9421E0821A91088114910472
S113123079F7E1C0843611F0893639F5F80137FEC3
S113124007C060817181828193810C5F1F4F08C048
S113125060817181072E000C880B990B0E5F1F4F64
S1131260F32DFF763F2E97FF09C0909580957095DA
S113127061957F4F8F4F9F4FF0683F2E2AE030E0FB
S1131280A30133D1882E861844C0853731F4232D29
S11312902F7EB22E2AE030E025C0932D997FB92EFF
S11312A08F36C1F018F4883579F0AEC0803719F064
S11312B0883721F0A9C0E92FE061BE2EB4FE0DC02D
S11312C0FB2DF460BF2E09C034FE0AC0292F26600E
S11312D0B22E06C028E030E005C020E130E002C0B4
S11312E020E132E0F801B7FE07C06081718182819C
S11312F093810C5F1F4F06C06081718180E090E094
S11313000E5F1F4FA301F1D0882E8618FB2DFF77A7
S11313103F2E36FE0DC0232D2E7FA22E891458F4A5
S113132034FE0BC032FC09C0832D8E7EA82E05C06E
S1131330B82CA32C03C0B82C01C0B92CA4FE0FC038
S1131340FE01E80DF11D8081803321F49A2D997EF0
S1131350A92E09C0A2FE06C0B394B39404C08A2D7A
S1131360867809F0B394A3FC10C0A0FE06C0B214A2
S113137080F4280C922C9B180DC0B21458F4B601BA
S113138080E290E076D0B394F8CFB21418F42B181E
S113139002C0982C212CA4FE0FC0B60180E390E07B
S11313A068D0A2FE16C0A1FC03C088E790E002C08A
S11313B088E590E0B6010CC08A2D867851F0A1FE34
S11313C002C08BE201C080E2A7FC8DE2B60190E08E
S11313D050D0891430F4B60180E390E04AD09A9456
S11313E0F8CF8A94F301E80DF11D8081B60190E0F5
S11313F040D08110F6CF222009F44ECEB60180E20F
S113140090E037D02A94F7CFF6018681978102C005
S11314108FEF9FEF2B960FB6F894DEBF0FBECDBFB4
S1131420DF91CF911F910F91FF90EF90DF90CF90BC
S1131430BF90AF909F908F907F906F905F904F90F0
S11314403F902F900895FC01059061507040011069
S1131450D8F7809590958E0F9F1F0895FC016150D9
S1131460704001900110D8F7809590958E0F9F1FC2
S113147008950F931F93CF93DF93FB01238121FDE5
S113148003C08FEF9FEF2CC022FF16C04681578107
S1131490248135814217530744F4A081B1819D0111
S11314A02F5F3F4F318320838C93268137812F5FB9
S11314B03F4F3783268314C08B01EC01FB0100846A
S11314C0F185E02D0995892BE1F6D80116968D91C9
S11314D09C911797019617969C938E931697CE011D
S11314E0DF91CF911F910F910895FA01AA27283017
S11314F051F1203181F1E8946F936E7F6E5F7F4FDD
S11315008F4F9F4FAF4FB1E03ED0B4E03CD0670F58
S1131510781F891F9A1FA11D680F791F8A1F911DAB
S1131520A11D6A0F711D811D911DA11D20D009F4FB
S113153068943F912AE0269F11243019305D31933D
S1131540DEF6CF010895462F4770405D4193B3E026
S11315500FD0C9F7F6CF462F4F70405D4A3318F0CD
S1131560495D31FD4052419302D0A9F7EACFB4E07E
S1131570A6959795879577956795BA95C9F7009736
S11315806105710508959B01AC010A2E06945795D7
S1131590479537952795BA95C9F7620F731F841F2E
S10D15A0951FA01D0895F894FFCFD5
S11315AA010101010101010101010101010101011D
S11315BA040000000200000000160700000000FFFB
S11315CAFFFFFF30083D2B3132332F3435362A37AB
S11315DA38392D4552523A20646976206279207A44
S11315EA65726F00256C6400434C45415200657274
S11315FA726F723A20656D707479004552523A20BE
S113160A706172656E206D69736D617463682028F8
S113161A2573290A00504152454E2045525200254D
S113162A733D00256C640A004E4F20524553554CB5
S113163A54003078256C58006572726F723A2062D1
S113164A75662066756C6C005175657565206973DD
S113165A20656D7074792021212100717565756585
S10D166A2066756C6C21212121001B
S9030000FC
