S00F00004C43445F43414C2E7372656313
S113000045C0000061C000005FC000005DC000008A
S11300105BC0000059C0000057C0000055C000007C
S113002053C0000051C000004FC000004DC000008C
S11300304BC0000049C0000047C0000045C000009C
S11300401CC6000041C00000E2C700003DC0000023
S11300503BC0000039C0000037C0000035C00000BC
S113006033C0000031C000002FC000002DC00000CC
S11300702BC0000029C0000027C0000025C00000DC
S113008023C0000021C000001FC0000011241FBEB7
S1130090CFEFD0E1DEBFCDBF12E0A0E0B1E0ECEDE8
S11300A0F8E100E00BBF02C007900D92A43DB10738
S11300B0D9F726E0A4EDB2E001C01D92A239B2073F
S11300C0E1F753D60C946C0C9BCF81B3877081BB42
S11300D00895CF92DF92EF92FF9220B330E002C0F6
S11300E0359527956A95E2F731E020FF30E0232F1C
S11300F0FC01E351FD4F40813417B9F0FC01E35199
S1130100FD4F30834091FA025091FB026091FC0252
S11301107091FD02FC01EE0FFF1FEE0FFF1FE7526F
S1130120FD4F40835183628373834091FA0250915F
S1130130FB026091FC027091FD02FC01EE0FFF1FB7
S1130140EE0FFF1FE752FD4FC080D180E280F380A5
S11301504C195D096E097F0944315105610571052A
S113016078F0FC01EC52FD4F3081231761F0FC0163
S1130170EC52FD4F2083211109C081E090E008C0BA
S113018080E090E005C080E090E002C080E090E074
S1130190FF90EF90DF90CF900895AC0120E030E025
S11301A009C0983211F43F5F04C0993211F4315000
S11301B072F02F5FFA01E20FF11D27FDFA9590818D
S11301C09111EFCF81E0332319F080E0089580E0AE
S11301D008958B3241F08D3241F08A3241F08F32F2
S11301E041F482E0089581E0089581E0089582E079
S11301F0089580E00895CF92DF92EF92FF920F93DB
S113020069017A010B3249F018F40A3281F029C0ED
S11302100D3241F00F3289F024C0620F731F841F26
S1130220951F22C0621B730B840B950B1DC09B0191
S1130230AC01C701B60197D717C021153105410597
S1130240510559F483E391E00E94530981E08093BE
S1130250F70260E070E0CB0107C0A7D7CA01B9017B
S113026003C060E070E0CB010F91FF90EF90DF904E
S1130270CF9008950F931F93CF938C01FC010190AD
S11302800020E9F73197E81BF90BE13120F0FF2753
S113029070970E0F1F1F60E080E0E5D4C0E003C03C
S11302A080E25ED4CF5FC031D8F360E080E0DBD47D
S11302B0C801C7D4CF911F910F9108950F931F9335
S11302C0CF938C0160E081E0CED4C0E003C080E233
S11302D047D4CF5FC031D8F360E081E0C4D4C80113
S11302E0B0D4CF911F910F9108951F93CF93DF93B3
S11302F0CDB7DEB761970FB6F894DEBF0FBECDBFA2
S11303002091F8022223B1F09F938F937F936F93F0
S113031084E491E09F938F931F9281E18F93CE01A8
S113032001969F938F93EFD70FB6F894DEBF0FBE5D
S1130330CDBF15C09F938F937F936F938AE491E011
S11303409F938F931F9281E18F93CE0101969F9388
S11303508F93D9D70FB6F894DEBF0FBECDBF60E040
S113036081E081D410E003C080E2FAD31F5F103132
S1130370D8F360E081E077D4CE01019662D461962F
S11303800FB6F894DEBF0FBECDBFDF91CF911F91A2
S113039008957F928F929F92AF92BF92CF92DF92F5
S11303A0EF92FF920F931F93CF93DF93CDB7DEB7F6
S11303B0C055D1090FB6F894DEBF0FBECDBF7C0186
S11303C01092F702D12C1FEFCC24CA94E3C090ED15
S11303D0980F9A3000F13CC0880F991FAA1FBB1FC9
S11303E04C015D01880C991CAA1CBB1C880C991C2F
S11303F0AA1CBB1C880D991DAA1DBB1D50E04053AF
S11304005109052E000C660B770B840F951FA61F50
S1130410B71FD39403C080E090E0DC01F701ED0D39
S1130420F11DD7FCFA95408120ED240F2A30A0F26B
S1130430C394E1E0F0E0EC0FFD1F2C2D34E0230227
S1130440E00DF11D112480839183A283B383A2C0A4
S1130450883261F41F5FE1E4F0E0EC0FFD1FE10F6F
S1130460F11D17FDFA958083D39494C08932D1F598
S113047029C099249A949C0CE1E0F0E0EC0FFD1F54
S11304808C2D94E08902E00DF11D1124208131812D
S113049042815381AA24A394B12CAC0EBD1EE92D34
S11304A0F4E0EF02A00CB11C1124F501608171810C
S11304B08281938111509FDEF50160837183828371
S11304C09383C92C11235CF0E1E4F0E0EC0FFD1FF1
S11304D0E10FF11D17FDFA950081083251F6115014
S11304E0D39458C08B3289F18D3279F18A3269F113
S11304F08F3209F04EC029C077247A947C0CE1E055
S1130500F0E0EC0FFD1F2C2D34E02302E00DF11D73
S113051011242081318142815381AA24A394B12CD6
S1130520AC0EBD1E872D94E08902A00CB11C1124D1
S1130530F501608171818281938111505CDEF50146
S11305406083718382839383C72C1123A4F0E1E435
S1130550F0E0EC0FFD1FE10FF11D17FDFA9500818E
S1130560083249F0802F35DEB82EF401808131DE67
S1130570B81608F0C1CF1F5FF4018081E1E4F0E018
S1130580EC0FFD1FE10FF11D17FDFA958083D39445
S113059001C0D39447018D0C911CD7FC9A94F401AB
S11305A08081811114CF35C0DD24DA94DC0CE1E0C4
S11305B0F0E0EC0FFD1F2C2D34E02302E00DF11DC3
S11305C011242081318142815381EE24E394F12C62
S11305D0EC0EFD1E8D2D94E08902E00CF11C11241B
S11305E0F7016081718182819381CC24CA94C10E08
S11305F0E1E4F0E0EC0FFD1FE10FF11D17FDFA95AA
S11306000081F9DDF70160837183828393831C2D5C
S1130610CD2C11234CF6E1E0F0E0EC0FFD1F2C2D66
S113062034E02302E00DF11D112460817181828187
S11306309381C05BDF4F0FB6F894DEBF0FBECDBF12
S1130640DF91CF911F910F91FF90EF90DF90CF90AA
S1130650BF90AF909F908F907F90089520E2FC010F
S113066011922A95E9F7FC0110A21092F8028EE487
S113067091E019D6B1C20895FDDD8091F20288237C
S113068049F06091F3027091F4028091F502909127
S1130690F6022BCE0895EF92FF920F931F93CF9300
S11306A0DF93EC01633411F4D9DFADC06D3309F08D
S11306B064C088A1811104C086E691E0F4D5A3C08A
S11306C08C2F9D2F6ADD81110FC0DF93CF9383E7B9
S11306D091E09F938F93D4D58DE891E0EFDD0F9057
S11306E00F900F900F908FC0DF93CF9387E991E025
S11306F09F938F93C5D58C2F9D2F4BDEE62EF72E1F
S1130700082F192FCE01B6DD8091F7020F900F90BC
S11307100F900F90882349F083E991E0C4D583E9D1
S113072091E0CCDD1092F2021FC01F930F93FF9251
S1130730EF928BE991E09F938F93A2D56E2D7F2D3D
S1130740802F912FD2DDE092F302F092F402009315
S1130750F5021093F60281E08093F2020F900F905D
S11307600F900F900F900F90EC2FFD2F80E2DF0180
S11307701D928A95E9F718A246C06834F1F481E025
S11307809091F802911180E08093F8029091F20226
S1130790992351F06091F3027091F4028091F50273
S11307A09091F602A2DD2FC0882319F084E591E030
S11307B002C08DE591E082DD26C0683071F488A125
S11307C0882309F1815088A3FE01E80FF11D1082EE
S11307D0CE0169D5CE014EDD16C088A18F3180F4DB
S11307E091E0980F98A3FE01E80FF11D6083FE01CC
S11307F0E90FF11D1082CE0156D5CE013BDD03C0B9
S113080080EA91E050D5DF91CF911F910F91FF9035
S1130810EF900895982F92959F70990F292F220F8A
S1130820220F920F8F70890F08950F931F93CF9308
S1130830DF93D82F8B0196D0C82F882351F08EEEEA
S113084091E09F938F931CD59FD00F900F908C2F86
S11308504EC080EDA2D0C82F8831F9F086E092E036
S113086022D580917100887F1F928F9388E292E055
S11308709F938F9305D51F92CF9387E392E09F9325
S11308808F93FED481D08DB79EB708960FB6F89497
S11308909EBF0FBE8DBF8C2F2AC08D2F8BD0C82F2B
S11308A0883231F086ED91E0FED46ED08C2F1FC0DB
S11308B059D0C82F882351F088E492E09F938F93F6
S11308C0DFD462D00F900F908C2F11C081ED65D0D2
S11308D0C82F803431F086E092E0E5D455D08C2FD7
S11308E006C075D097DFF80180834ED08C2FDF913E
S11308F0CF911F910F910895CF93DF93EC01BC0129
S113090080E093DFBE016F5F7F4F81E08EDFBE0129
S11309106E5F7F4F82E089DFDF91CF910895CF939F
S1130920DF93EC01BC016D5F7F4F83E07EDFBE018E
S11309306C5F7F4F84E079DFBE016B5F7F4F85E0A2
S113094074DFBE016A5F7F4F86E06FDFDF91CF9176
S1130950089581B38C7F81BB1092710088E48093E9
S11309607000089584EA8093740080917400882351
S1130970E4F780917100887F883021F0803119F488
S113098080E0089580E0089584E98093740085E30D
S11309908A95F1F7000080E008958093730084E85D
S11309A080937400809174008823E4F7809171002F
S11309B0887F08958093730084E880937400809105
S11309C074008823E4F780917100887F089584E897
S11309D080937400809174008823E4F780917300FD
S11309E008958FE08ABB8FEF8BBB0895CF93DF937D
S11309F0CDB7DEB760970FB6F894DEBF0FBECDBF9C
S1130A0020E1E3E2F1E0DE01119601900D922A95D6
S1130A10E1F72FEF2BBB4BB3E3E0F0E0E61BF70B62
S1130A2021E030E002C0220F331FEA95E2F720955F
S1130A3024232BBB20E030E002C02F5F3F4F243142
S1130A403105DCF349B3FC01349621E030E00E2E8D
S1130A5002C0220F331F0A94E2F750E02423352307
S1130A6002C035952795EA95E2F7211118C0FC01DB
S1130A70EE0FFF1FEE0FFF1FE050FF4FE60FF71FB3
S1130A803081313061F4880F991F880F991F80508D
S1130A909F4FFC01E60FF71F108280E027C0213032
S1130AA011F5FC01EE0FFF1FEE0FFF1FE050FF4F8B
S1130AB0E60FF71F2081211118C0880F991F880F96
S1130AC0991FFC01E050FF4FE60FF71F21E0208340
S1130AD021E030E02C0F3D1F820F931FFC01E60F35
S1130AE0F71F808103C080E001C080E060960FB6EC
S1130AF0F894DEBF0FBECDBFDF91CF9108950F9361
S1130B001F93CF93DF9300E010E00EC0BE01C80135
S1130B106DDF81110DC0219602C0C0E0D0E0C43069
S1130B20D105A4F30F5F1F4F04301105B4F380E027
S1130B30DF91CF911F910F91089588B3806888BB8E
S1130B408FE99FE00197F1F700C0000088B38F7729
S1130B5088BB8FE99FE00197F1F700C0000008957A
S1130B60CF93C82F88B3806288BB809110018830EE
S1130B7019F4C5BBE2DF0AC08C2F807F85BBDDDFA3
S1130B8020E1C29FC001112485BBD7DF8FE39FE121
S1130B900197F1F700C00000CF910895CF93C82FBB
S1130BA088B38F7D88BB80911001883019F4C5BB50
S1130BB0C4DF0AC08C2F807F85BBBFDF20E1C29FCA
S1130BC0C001112485BBB9DF8FE39FE10197F1F7E1
S1130BD000C00000CF91089581E0E0DF8FE39FE142
S1130BE00197F1F700C0000008952FEF80E792E02D
S1130BF0215080409040E1F700C000008091100136
S1130C00883021F484B38FEF84BB03C084B3806F36
S1130C1084BB15BA87B3806E87BB88B38F7B88BBD0
S1130C2080911001883019F488E3B8DF04C082E0B1
S1130C30B5DF88E2B3DF8CE0B1DFCEDF86E0AECF94
S1130C4008950F931F93CF938C01C0E002C088DFF7
S1130C50CF5FF801EC0FF11D80818111F8CFCF91A6
S1130C601F910F9108956F70817090E4899F600DBA
S1130C701124862F805892CF08951F920F920FB699
S1130C800F9211240BB60F922F933F934F935F93C0
S1130C906F937F938F939F93AF93BF93EF93FF9340
S1130CA0CF93DF931F92CDB7DEB7198286E082BF60
S1130CB08091FA029091FB02A091FC02B091FD0296
S1130CC00196A11DB11D8093FA029093FB02A0939B
S1130CD0FC02B093FD028091FE029091FF02A0916C
S1130CE00003B09101030196A11DB11D8093FE0282
S1130CF09093FF02A0930003B0930103CC97A10546
S1130D00B10588F01092FE021092FF0210920003C7
S1130D1010920103F4DE8983882329F089815CD150
S1130D2081E08093F9020F90DF91CF91FF91EF91D1
S1130D30BF91AF919F918F917F916F915F914F91EF
S1130D403F912F910F900BBE0F900FBE0F901F90ED
S1130D50189586E082BF83B7887F83BF83B784609A
S1130D6083BF87B7816087BF0895CF93DF93CDB7E3
S1130D70DEB7CB54D1090FB6F894DEBF0FBECDBF9A
S1130D80E8DFE2D12EDEA1D930DFE3DDCE0101962A
S1130D9065DC81E191E090938F0680938E067894D0
S1130DA0C12CD12C760110E067E070E084E090E083
S1130DB090D9892B69F1111116C00EDF60E080E033
S1130DC052DF8EE792E03DDF2FEF8FE097E2215074
S1130DD080409040E1F700C00000FEDEC12CD12C21
S1130DE0760111E015C0F8DE60E080E03CDF89E8C0
S1130DF092E027DF2FEF8FE097E221508040904070
S1130E00E1F700C00000E8DECE01019635DC10E019
S1130E10111137C08091F902882329F01092F90248
S1130E206EDE8111D9D063E070E080E090E051D9AA
S1130E30892B11F088E4D0D064E070E081E090E088
S1130E4048D9892B11F083E4C7D065E070E082E0D3
S1130E5090E03FD9892B11F088E2BED066E070E0C3
S1130E6083E090E036D9892B11F089E2B5D08BD09C
S1130E70892B09F099CF98D0682FCE0101960BDC0D
S1130E8093CF1092F9028091FA029091FB02A09103
S1130E90FC02B091FD028C199D09AE09BF09883E80
S1130EA09340A105B10508F47FCFC090FA02D09019
S1130EB0FB02E090FC02F090FD02CE018C5B9F4FA0
S1130EC01BDDCE018C5B9F4F2ADD29962FAD299720
S1130ED02A969FAD2A972B968FAD2B971F922F930F
S1130EE01F929F931F928F9382E992E09F938F9317
S1130EF01F9201E10F934E0183E3880E911C9F9290
S1130F008F9201D225962FAD259726969FAD2697D1
S1130F1027968FAD27971F922F931F929F931F920F
S1130F208F9383EA92E09F938F931F920F935E01B6
S1130F3092E2A90EB11CBF92AF92E5D160E080E0CD
S1130F4092DEC4017EDE60E081E08DDEC50179DEE3
S1130F500FB6F894DEBF0FBECDBF26CF80911F0120
S1130F6090912001019664E670E00CD1209121015A
S1130F70309122018217930719F481E090E00895DB
S1130F8080E090E0089520911F013091200180912C
S1130F902101909122012817390719F481E090E08A
S1130FA0089580E090E00895EEDF892B21F082EB34
S1130FB092E079C1089580912101909122010196D6
S1130FC064E670E0DFD09093220180932101FC015C
S1130FD0E85FFC4F80810895CF93C82FBFDF892B32
S1130FE021F085EC92E05FD110C080911F019091B7
S1130FF02001019664E670E0C5D0909320018093AF
S11310001F01FC01E85FFC4FC083CF9108951F923C
S11310100F920FB60F9211240BB60F922F933F939A
S11310204F935F936F937F938F939F93AF93BF93EC
S1131030EF93FF93CF93DF931F92CDB7DEB78CB1BD
S1131040898389818A3019F089818D30C1F5809135
S113105006039091070301962AE030E0B90192D08B
S1131060FC018091040390910503B9018BD0E8172A
S1131070F90709F453C020910603309107038091C6
S113108002039091030340E5429FF001439FF00D5A
S11310901124E459FC4FE80FF91F10821092030346
S11310A010920203809106039091070301966AE06F
S11310B070E068D090930703809306032FC080915B
S11310C006039091070301962AE030E0B9015AD053
S11310D0FC018091040390910503B90153D0E817F2
S11310E0F907E1F060910603709107038091020310
S11310F0909103039C012F5F3F4F30930303209390
S11311000203498150E5569F9001579F300D1124E9
S113111024593C4FF901E80FF91F40830F90DF91E8
S1131120CF91FF91EF91BF91AF919F918F917F915B
S11311306F915F914F913F912F910F900BBE0F9044
S11311400FBE0F901F901895109290008FEC89B9E4
S11311508BB182608BB98AB188698AB908955D9B25
S1131160FECF8CB90895DB018F939F933AD0BF9142
S1131170AF91A29F800D911DA39F900DB29F900DE2
S11311801124089597FB072E16F4009406D077FDDA
S113119008D031D007FC05D03EF4909581959F4F3F
S11311A00895709561957F4F0895052E97FB16F469
S11311B000940FD057FD05D032D007FC02D046F47E
S11311C008C050954095309521953F4F4F4F5F4F44
S11311D0089590958095709561957F4F8F4F9F4F9F
S11311E008953FD0A59F900DB49F900DA49F800DAE
S11311F0911D11240895AA1BBB1B51E107C0AA1F0E
S1131200BB1FA617B70710F0A61BB70B881F991FA3
S11312105A95A9F780959095BC01CD010895A1E256
S11312201A2EAA1BBB1BFD010DC0AA1FBB1FEE1F5C
S1131230FF1FA217B307E407F50720F0A21BB30BA7
S1131240E40BF50B661F771F881F991F1A9469F723
S113125060957095809590959B01AC01BD01CF017F
S11312600895A29FB001B39FC001A39F700D811D7B
S11312701124911DB29F700D811D1124911D08959B
S1131280CF93DF93CDB7DEB7AE014B5F5F4FFA016B
S113129061917191AF0180918E0690918F066FD00C
S11312A0DF91CF9108950F931F93CF93DF93E09134
S11312B08E06F0918F06238121FF1BC08C01D0E0A4
S11312C0C0E0F80181918F0160918E0670918F06C4
S11312D0DB011896ED91FC911997882331F009955B
S11312E0892B79F3DFEFCFEFECCF8AE00995892BD7
S11312F019F08FEF9FEF02C08D2F9C2FDF91CF91BC
S11313001F910F9108950F931F93CF93DF93CDB740
S1131310DEB72E970FB6F894DEBF0FBECDBF0D8992
S11313201E898F89988D26E02C831A83098397FF61
S113133002C080E090E801979E838D83AE01455EF4
S11313405F4F698D7A8DCE01019619D04D815E81F2
S113135057FD0AC02F813885421753070CF49A01B0
S1131360F801E20FF31F10822E960FB6F894DEBF39
S11313700FBECDBFDF91CF911F910F9108952F9292
S11313803F924F925F926F927F928F929F92AF9211
S1131390BF92CF92DF92EF92FF920F931F93CF935E
S11313A0DF93CDB7DEB72B970FB6F894DEBF0FBE31
S11313B0CDBF6C017B018A01FC01178216828381F7
S11313C081FFBFC1CE0101963C01F6019381F70173
S11313D093FD859193FF81917F01882309F4ADC129
S11313E0853239F493FD859193FF81917F01853294
S11313F021F4B60190E0D6D1E8CF912C212C312CE8
S1131400FFE1F315D8F08B3279F038F4803279F0BB
S11314108332A1F4232D20611DC08D3261F080330D
S113142069F4232D216016C0832D8260382EE32DAC
S1131430E4603E2E2AC0F32DF8601DC037FC2DC099
S113144020ED280F2A3040F08E32B9F436FC75C1F5
S1131450232D2064322E19C036FE06C08AE0989EE1
S1131460200D1124922E11C0EAE02E9E200D11248D
S1131470222EF32DF0623F2E08C08C3621F4832DEA
S11314808068382E02C0883641F4F70193FD8591B7
S113149093FF81917F018111B3CF982F9F7D955444
S11314A0933028F40C5F1F4F9FE399830DC083365C
S11314B031F0833771F0833509F055C020C0F8014D
S11314C0808189830E5F1F4F88248394912C53015C
S11314D012C02801F2E04F0E511CF801A080B18027
S11314E036FE03C0692D70E002C06FEF7FEFC501C7
S11314F04ED14C018201F32DFF773F2E15C02801F8
S113150022E0420E511CF801A080B18036FE03C0D7
S1131510692D70E002C06FEF7FEFC5012DD14C0142
S1131520F32DF0683F2E820133FC19C0822D90E028
S113153088169906A0F4B60180E290E033D12A948B
S1131540F5CFF50137FC859137FE81915F01B60136
S113155090E028D121102A9421E0821A9108811464
S1131560910479F7E1C0843611F0893639F5F80130
S113157037FE07C060817181828193810C5F1F4FA8
S113158008C060817181072E000C880B990B0E5FD7
S11315901F4FF32DFF763F2E97FF09C0909580953E
S11315A0709561957F4F8F4F9F4FF0683F2E2AE0D3
S11315B030E0A30133D1882E861844C0853731F436
S11315C0232D2F7EB22E2AE030E025C0932D997F63
S11315D0B92E8F36C1F018F4883579F0AEC0803753
S11315E019F0883721F0A9C0E92FE061BE2EB4FEBE
S11315F00DC0FB2DF460BF2E09C034FE0AC0292F94
S11316002660B22E06C028E030E005C020E130E0BC
S113161002C020E132E0F801B7FE07C060817181A9
S1131620828193810C5F1F4F06C06081718180E0CD
S113163090E00E5F1F4FA301F1D0882E8618FB2D7A
S1131640FF773F2E36FE0DC0232D2E7FA22E891448
S113165058F434FE0BC032FC09C0832D8E7EA82EB4
S113166005C0B82CA32C03C0B82C01C0B92CA4FE0F
S11316700FC0FE01E80DF11D8081803321F49A2D05
S1131680997EA92E09C0A2FE06C0B394B39404C0E7
S11316908A2D867809F0B394A3FC10C0A0FE06C07E
S11316A0B21480F4280C922C9B180DC0B21458F478
S11316B0B60180E290E076D0B394F8CFB21418F477
S11316C02B1802C0982C212CA4FE0FC0B60180E375
S11316D090E068D0A2FE16C0A1FC03C088E790E0A9
S11316E002C088E590E0B6010CC08A2D867851F0DE
S11316F0A1FE02C08BE201C080E2A7FC8DE2B6012C
S113170090E050D0891430F4B60180E390E04AD0E0
S11317109A94F8CF8A94F301E80DF11D8081B60103
S113172090E040D08110F6CF222009F44ECEB601CD
S113173080E290E037D02A94F7CFF6018681978132
S113174002C08FEF9FEF2B960FB6F894DEBF0FBE4B
S1131750CDBFDF91CF911F910F91FF90EF90DF905C
S1131760CF90BF90AF909F908F907F906F905F903D
S11317704F903F902F900895FC0105906150704068
S11317800110D8F7809590958E0F9F1F0895FC0146
S11317906150704001900110D8F7809590958E0F9C
S11317A09F1F08950F931F93CF93DF93FB01238112
S11317B021FD03C08FEF9FEF2CC022FF16C046818E
S11317C05781248135814217530744F4A081B181A4
S11317D09D012F5F3F4F318320838C932681378176
S11317E02F5F3F4F3783268314C08B01EC01FB012D
S11317F00084F185E02D0995892BE1F6D801169630
S11318008D919C911797019617969C938E9316979A
S1131810CE01DF91CF911F910F910895FA01AA276C
S1131820283051F1203181F1E8946F936E7F6E5F1F
S11318307F4F8F4F9F4FAF4FB1E03ED0B4E03CD0CD
S1131840670F781F891F9A1FA11D680F791F8A1FB0
S1131850911DA11D6A0F711D811D911DA11D20D017
S113186009F468943F912AE0269F11243019305DD1
S11318703193DEF6CF010895462F4770405D4193C2
S1131880B3E00FD0C9F7F6CF462F4F70405D4A330F
S113189018F0495D31FD4052419302D0A9F7EACFD7
S11318A0B4E0A6959795879577956795BA95C9F706
S11318B000976105710508959B01AC010A2E0694F9
S11318C05795479537952795BA95C9F7620F731FB2
S10F18D0841F951FA01D0895F894FFCFFD
S11318DC01010101010101010101010101010101E8
S11318EC040000000200000000AF0800000000FF2C
S11318FCFFFFFF30083D2B3132332F3435362A3776
S113190C38392D4552523A20646976206279207A0E
S113191C65726F003078256C5800256C6400434C5C
S113192C45415200484558204D4F444500444543D9
S113193C204D4F4445006572726F723A20656D708C
S113194C7479004552523A20706172656E206D694B
S113195C736D6174636820282573290A0050415201
S113196C454E204552520025733D00256C640A00F7
S113197C6572726F723A206275662066756C6C00C3
S113198C4552523A205354415254204641494C45F5
S113199C442021004552523A20534C4156455F4154
S11319AC4444522021004552523A2044415441208F
S11319BC5752495445202B204E41434B200045524D
S11319CC523A20535441525428726561642920467A
S11319DC41494C4544004552523A20736C6176653A
S11319EC5F61646472287265616429202B206E61C6
S11319FC636B20212121200054575352203D203069
S1131A0C78253032580A00737461747573203D2044
S1131A1C3078253032580A004552523A20526570BB
S1131A2C6561746564204641494C454400792D6DCB
S1131A3C2D643A2025642D25642D25640A007469CF
S1131A4C6D653A2025642D25642D25640A00434CCC
S1131A5C4F434B204D4F44450043414C204D4F4484
S1131A6C45003230253032752D253032752D253018
S1131A7C327500253032753A253032753A253032BC
S1131A8C7500517565756520697320656D70747981
S1131A9C202121210071756575652066756C6C219A
S1071AAC21212100CF
S9030000FC
