:1000000045C0000060C000005EC000005CC0000091
:100010005AC0000058C0000056C0000054C0000084
:1000200052C0000050C000004EC000004CC0000094
:100030004AC0000048C0000046C0000044C00000A4
:10004000FCC1000040C000003EC000003CC00000F9
:100050003AC0000038C0000036C0000034C00000C4
:1000600032C0000030C000002EC000002CC00000D4
:100070002AC0000028C0000026C0000024C00000E4
:1000800022C0000020C000001EC0000011241FBEBE
:10009000CFEFD0E1DEBFCDBF11E0A0E0B1E0EAEFED
:1000A000F4E000E00BBF02C007900D92AC30B10746
:1000B000D9F721E0ACE0B1E001C01D92AE31B2074A
:1000C000E1F7EFD118C29CCF80911A0190911B01EA
:1000D000A0911C01B0911D0184369105A105B105C7
:1000E00088F110921A0110921B0110921C011092BB
:1000F0001D0181E090E00090160102C0880F991F59
:100100000A94E2F78BBB809116019091170101963A
:1001100087709078992324F40197886F9F6F0196D8
:100120009093170180931601892B61F48091180137
:1001300090911901019666E070E0B6D19093190193
:1001400080931801089580911A0190911B01A0914C
:100150001C01B0911D0184369105A105B10588F1FE
:1001600010921A0110921B0110921C0110921D0195
:1001700080E890E00090140102C0959587950A945C
:10018000E2F78BBB80911401909115010196877065
:100190009078992324F40197886F9F6F019690932C
:1001A000150180931401892B61F4809118019091BD
:1001B0001901019666E070E077D190931901809360
:1001C0001801089580911A0190911B01A0911C01C2
:1001D000B0911D0184369105A105B10508F443C015
:1001E00010921A0110921B0110921C0110921D0115
:1001F00040910E0150910F019A012C5F3F4F81E019
:1002000090E0BC0102C0660F771F2A95E2F723E059
:1002100030E0241B350B02C0880F991F2A95E2F7A6
:10022000862B9BB3892B8BBB80910E0190910F0184
:10023000019687709078992324F40197886F9F6FB7
:10024000019690930F0180930E01892B61F48091A8
:10025000180190911901019666E070E025D1909304
:10026000190180931801089580911A0190911B0142
:10027000A0911C01B0911D0184369105A105B10525
:1002800008F441C010921A0110921B0110921C0137
:1002900010921D0140910C0150910D0127E030E0BA
:1002A000241B350B81E090E0BC0102C0660F771F74
:1002B0002A95E2F702C0880F991F4A95E2F7862B2C
:1002C00080959BB389238BBB80910C0190910D018C
:1002D000019687709078992324F40197886F9F6F17
:1002E000019690930D0180930C01892B61F480910C
:1002F000180190911901019666E070E0D5D09093B5
:1003000019018093180108958FEF8ABB1BBA0895D5
:100310001BBA0895F9DFFCDFE0911801F091190193
:10032000EE0FFF1FE050FF4F0190F081E02D099587
:10033000F3CF80911A0190911B01A0911C01B09103
:100340001D0184369105A105B105A0F110921A0195
:1003500010921B0110921C0110921D0181E090E08F
:100360000090120102C0880F991F0A94E2F79BB314
:10037000892B8BBB8091120190911301019687709C
:100380009078992324F40197886F9F6F019690933A
:10039000130180931201892B69F4BADF809118014F
:1003A00090911901019666E070E07ED0909319015A
:1003B00080931801089580911A0190911B01A091DA
:1003C0001C01B0911D0184369105A105B105A0F174
:1003D00010921A0110921B0110921C0110921D0123
:1003E00080E890E00090100102C0959587950A94EE
:1003F000E2F79BB3892B8BBB809110019091110187
:10040000019687709078992324F40197886F9F6FE5
:1004100001969093110180931001892B69F478DF84
:100420008091180190911901019666E070E03CD02E
:10043000909319018093180108951F920F920FB69F
:100440000F9211248F939F93AF93BF9386E082BF47
:1004500080911A0190911B01A0911C01B0911D0186
:100460000196A11DB11D80931A0190931B01A093C9
:100470001C01B0931D01BF91AF919F918F910F907F
:100480000FBE0F901F90189586E082BF83B7887FBC
:1004900083BF83B7846083BF87B7816087BF789449
:1004A0000895F2DF37DFFFCF97FB072E16F4009495
:1004B00006D077FD08D00BD007FC05D03EF4909510
:1004C00081959F4F0895709561957F4F0895AA1B60
:1004D000BB1B51E107C0AA1FBB1FA617B70710F02F
:1004E000A61BB70B881F991F5A95A9F78095909561
:0A04F000BC01CD010895F894FFCF80
:0C04FA006400A3009901DB01E200340162
:00000001FF
