S014000030372E204155544F5F4341522E73726563ED
S1130000DAC00000F6C00000F4C00000F2C0000036
S1130010F0C0000083C10000D2C1000020C2000073
S1130020E8C00000E6C00000E4C00000E2C0000038
S1130030E0C00000DEC00000DCC00000DAC0000048
S113004080C60000D6C00000CFC70000D2C00000A8
S1130050D0C00000CEC00000CCC00000CAC0000068
S1130060C8C00000C6C00000C4C00000C2C0000078
S1130070C0C00000BEC000000C946109BAC00000FA
S1130080B8C00000B6C00000B4C0000023014001A5
S1130090400140011901400140014001400140017B
S11300A02D01400140014001400140013701400160
S11300B04001400140014001400140014001400134
S11300C04001400140014001400140012301400141
S11300D0400140011901400140014001400140013B
S11300E02D01400140014001400140013701340429
S11300F03204320432042A04320432043204320454
S113010032042C04320432043204320432042E0445
S1130110300432043204320432043204320432042D
S11301203204320432043204320432043204340419
S11301303204320432042A04320432043204320413
S113014032042C04320432043204320432042E0405
S1130150300478069C069C069C066E069C069C064B
S11301609C069C069C0682069C069C069C069C0695
S11301709C068C0696069C069C069C069C069C0681
S11301809C069C069C069C069C069C069C069C065B
S11301909C0678069C069C069C066E069C069C069D
S11301A09C069C069C0682069C069C069C069C0655
S11301B09C068C06960611241FBECFEFD0E1DEBF4D
S11301C0CDBF11E0A0E0B1E0E6E7FCE100E00BBF49
S11301D002C007900D92A834B107D9F724E0A8E42F
S11301E0B1E001C01D92A63AB207E1F7E6D50C943E
S11301F0390E06CF282F8093190134E6369FC001AB
S1130200379F900D11246FEF73E00E94180B6093D9
S11302107801809106012817A9F1822F90E0FC0152
S1130220E254F109E133F10558F5EA5BFF4F0C9410
S1130230610B80916A0190916B01019690936B011F
S113024080936A011DC080916801909169010196B3
S1130250909369018093680113C080916601909125
S113026067010196909367018093660109C08091AC
S113027064019091650101969093650180936401F6
S113028020930601089592B39F70282F207F922B0C
S113029092BB98B3907F8F70892B88BB089510927E
S11302A06501109264011092670110926601109228
S11302B069011092680110926B0110926A0183E542
S11302C0809306010895E4E6F0E080818E7F8083C8
S11302D0808180618083E5E6F0E080818F7E808389
S11302E008954BB321E030E0B90102C0660F771FD7
S11302F08A95E2F7CB01962F909549234BBB7AE080
S11303007A95F1F700C02BB3822B8BBB85E38A95DA
S1130310F1F700008BB398239BBB08951F920F92B3
S11303200FB60F9211240BB60F922F933F934F9356
S11303305F936F937F938F939F93AF93BF93EF9349
S1130340FF930C9B05C0109289001092880024C072
S1130350609188007091890080E090E00E94270AF3
S113036020E034E244E759E40E94B50A20E030E09A
S113037040E854E40E94B50A20E034E244E75BE438
S1130380CDD720E030E048E652E4C8D70E94F60911
S11303907093050160930401FF91EF91BF91AF91B8
S11303A09F918F917F916F915F914F913F912F9189
S11303B00F900BBE0F900FBE0F901F9018951F92B9
S11303C00F920FB60F9211240BB60F922F933F93F7
S11303D04F935F936F937F938F939F93AF93BF9349
S11303E0EF93FF930D9B05C0109289001092880033
S11303F023C0609188007091890080E090E00E94A1
S1130400270A20E034E244E759E40E94B50A20E0D8
S113041030E040E854E40E94B50A20E034E244E7C6
S11304205BE47CD720E030E048E652E477D7DED7BF
S11304307093030160930201FF91EF91BF91AF911B
S11304409F918F917F916F915F914F913F912F91E8
S11304500F900BBE0F900FBE0F901F9018951F9218
S11304600F920FB60F9211240BB60F922F933F9356
S11304704F935F936F937F938F939F93AF93BF93A8
S1130480EF93FF930E9B05C0109289001092880091
S113049022C0609188007091890080E090E0D7D7F5
S11304A020E034E244E759E40E94B50A20E030E059
S11304B040E854E40E94B50A20E034E244E75BE4F7
S11304C02DD720E030E048E652E428D78FD7709348
S11304D0010160930001FF91EF91BF91AF919F9152
S11304E08F917F916F915F914F913F912F910F90D9
S11304F00BBE0F900FBE0F901F9018958AB38760A4
S11305008ABB8BB3887F8BBB82B18F7882B98AB761
S113051081608ABF8AB784608ABF8AB780618ABFD4
S1130520EAE8F0E0108280818560808389B7806783
S113053089BF08958091740190917501A09176010D
S1130540B091770140915B0150915C0160915D0134
S113055070915E01841B950BA60BB70B8436910535
S1130560A105B10540F18091740190917501A091AC
S11305707601B091770180935B0190935C01A09325
S11305805D01B0935E0180915F01813051F018F0FC
S1130590823069F0089580E0A4DE81E080935F01F9
S11305A0089581E09EDE82E080935F01089582E0F9
S11305B098DE10925F01089581B3806F81BB82B38E
S11305C0806F82BB87B38F6087BB88B38F6088BB23
S11305D0E1E6F0E08081806F8083E2E6F0E08081F4
S11305E08F70808308958FEF84BB85BB8AB3806F3F
S11305F08ABB8BB38F708BBB08950F931F9380912D
S11306006300817090915A01891791F080935A0187
S11306104091740150917501609176017091770158
S113062040935601509357016093580170935901B8
S11306304091740150917501609176017091770138
S113064000915601109157012091580130915901A0
S1130650401B510B620B730B44315105610571054D
S113066058F090915501891751F0809355018111EB
S113067009C081E090E008C080E090E005C080E01F
S113068090E002C080E090E01F910F910895892BC3
S113069031F0E5E6F0E08081806180830895E5E64D
S11306A0F0E080818F7E80830895CF92DF92EF9275
S11306B0FF921F93CF93DF9300D000D0CDB7DEB766
S11306C060362AEE72078105910508F042C028EED3
S11306D033E040E050E0D3D76B017C01CA01B9019B
S11306E02CE330E040E050E0CAD7162FC701B60132
S11306F02AE030E040E050E0C2D78DEC189F912D05
S113070011249695969596959983990F392F330FC1
S1130710330F930F191B165F1A83289F812D112401
S11307208695869586958B83880F982F990F990FB8
S1130730890F281B2C8380915401E1E0F0E0EC0F39
S1130740FD1FE80FF11DE081F0E0E65DFE4F8081C2
S113075036C020E63AEE40E050E091D7122F28EE62
S113076033E040E050E08BD78DEC189F912D11249D
S11307709695969596959983990F392F330F330F44
S1130780930F191B165F1A83289F812D11248695B8
S1130790869586958B83880F982F990F990F890FCB
S11307A0281B2C8380915401E1E0F0E0EC0FFD1F45
S11307B0E80FF11DE081F0E0E65DFE4F8081E2E6A6
S11307C0F0E090819F7090835EDD809154018130D0
S11307D061F028F0823079F0833099F017C0E2E6B6
S11307E0F0E080818068808311C0E2E6F0E08081DF
S11307F0806480830BC0E2E6F0E0808180628083C5
S113080005C0E2E6F0E0808180618083809154013C
S113081090E0019683709078992324F401978C6F6B
S11308209F6F0196809354010F900F900F900F903B
S1130830DF91CF911F91FF90EF90DF90CF900895BB
S113084090E0FC01E254F109E233F10558F4E9586F
S1130850FF4F37C72BE009C02DE007C02EE005C0CD
S11308602FE003C02FE001C02CE0EDEC6E9F812D42
S113087011248695869586958E9FE12D1124E69503
S1130880E695E695EE0F9E2F990F990FE90F982F95
S11308909E1BE92F880F982F990F990F890F962F78
S11308A0981B80915301813031F038F0823059F037
S11308B0833071F013C09FEB12C0E22FF0E0E65ECC
S11308C0FE4F90810CC0F0E0E65EFE4F908107C0C1
S11308D0E92FF0E0E65EFE4F908101C09FEF8BB3FD
S11308E08F708BBB95BB80915301813051F028F000
S11308F0823059F0833069F00FC08BB380618BBBB9
S11309000BC08BB380628BBB07C08BB380648BBB83
S113091003C08BB380688BBB8091530190E0019638
S113092083709078992324F401978C6F9F6F0196BC
S11309308093530108951F93CF93DF9380917401A3
S113094090917501A0917601B091770140914F018A
S1130950509150016091510170915201841B950B8B
S1130960A60BB70B883E9340A105B105F0F080912A
S1130970740190917501A0917601B09177018093F3
S11309804F0190935001A0935101B0935201809173
S11309904E0190E0019683709078992324F4019796
S11309A08C6F9F6F019680934E0180914E01813030
S11309B051F018F0823069F012C0C0916A01D091F0
S11309C06B011BE011C0C0916801D09169011CE06A
S11309D00BC0C0916601D09167011DE005C0C091B4
S11309E06401D09165011EE0C436D10510F0C3E660
S11309F0D0E09E01ADECBCEC6DD6FC01F695E7951C
S1130A00F695E795F695E7959F0164D6AC01569562
S1130A1047955695479556954795CA01880F991F4E
S1130A20440F551F440F551F440F551F480F591F9E
S1130A30CF01841B950BAC019E01CF01880F991F38
S1130A40EE0FFF1FEE0FFF1FEE0FFF1FE80FF91F42
S1130A502E1B3F0B80914D01813031F038F08230F4
S1130A6059F0833079F014C09FEB13C0E12FF0E00C
S1130A70E65EFE4F90810DC05527FA01E65EFE4FFB
S1130A80908107C03327F901E65EFE4F908101C0D3
S1130A909FEF8BB38F708BBB95BB80914D018130E1
S1130AA051F028F0823059F0833069F00FC08BB3D5
S1130AB080618BBB0BC08BB380628BBB07C08BB3D5
S1130AC080648BBB03C08BB380688BBB80914D016A
S1130AD090E0019683709078992324F401978C6FA9
S1130AE09F6F019680934D01DF91CF911F910895DF
S1130AF08F929F92AF92BF92CF92DF92EF92FF922A
S1130B00209104013091050180910201909103012B
S1130B1040910001509101018B30910544F02B303C
S1130B2031053CF04B30510534F461E005C061E01F
S1130B3003C061E001C060E06623C1F060914C0134
S1130B40611116C061E060934C01C0907401D090B3
S1130B507501E0907601F0907701C0924801D0923F
S1130B604901E0924A01F0924B0102C010924C01FB
S1130B7060914C01662309F43FC0C0907401D09089
S1130B807501E0907601F090770180904801909093
S1130B904901A0904A01B0904B01C818D908EA084D
S1130BA0FB0860EDC61667E0D606E104F10420F107
S1130BB088E592E0E2D168E572E082E61BDB809191
S1130BC0740190917501A0917601B09177014091E3
S1130BD048015091490160914A0170914B01841B75
S1130BE0950BA60BB70B883B9B40A105B10508F4F8
S1130BF05FC010924C015CC02D3031055CF44D3067
S1130C00510544F488E592E0B8D168E572E082E6E3
S1130C10F1DA4EC08B3091055CF42B30310544F48D
S1130C2088E592E0C6D168E572E08CE4E3DA40C07E
S1130C308B3091055CF44B30510544F488E592E027
S1130C40AAD168E572E082E7D5DA32C00B979CF44A
S1130C504217530744F488E592E09DD168E572E0B9
S1130C6082E7C8DA25C088E592E0A3D168E572E09E
S1130C708CE4C0DA1DC02B30310544F488E592E0E1
S1130C8098D168E572E08CE4B5DA12C04B305105B6
S1130C9044F488E592E07FD168E572E082E7AADA5D
S1130CA007C080E991E05BD160E971E086E6A2DAF1
S1130CB0FF90EF90DF90CF90BF90AF909F908F9078
S1130CC00895E0919F048E2F90E0FC01E254F10915
S1130CD0E233F10588F5E755FF4FF3C484EF91E063
S1130CE03ED186E48093190180E38093780124C087
S1130CF084EF91E042D182E68093190180E38093EE
S1130D0078011AC08CEB92E046D182E780931901F6
S1130D1084E48093780110C08CEB92E04AD18CE497
S1130D208093190184E48093780106C050D183E54F
S1130D30809319011092780110929F040895D8CEDF
S1130D4008951F920F920FB60F9211248F939F93C1
S1130D50AF93BF9386E082BF809174019091750137
S1130D60A0917601B09177010196A11DB11D8093E8
S1130D70740190937501A0937601B09377018091EB
S1130D8072019091730101969093730180937201A3
S1130D90BF91AF919F918F910F900FBE0F901F90B5
S1130DA0189586E082BF83B7887F83BF83B784604A
S1130DB083BF87B7816087BF0895F3DFB2D16AD25A
S1130DC0B7D0A2D080DAF8DB99DB0DDC8BE091E0C0
S1130DD09093A3048093A20478940FDC892B09F4E4
S1130DE049C081E090E020916C0130916D01232B8A
S1130DF011F080E090E090936D0180936C0147DCEA
S1130E0080916C0190916D01019791F4809174012E
S1130E1090917501A0917601B091770180936E0154
S1130E2090936F01A0937001B093710138DA22C0DE
S1130E30CED083E5809319011092780180917401DA
S1130E4090917501A0917601B091770140916E0166
S1130E5050916F016091700170917101841B950B29
S1130E60A60BB70B8093600190936101A09362017C
S1130E70B093630180916C0190916D010197E9F445
S1130E808091740190917501A0917601B0917701E0
S1130E9000916E0110916F012091700130917101E8
S1130EA0BC01CD01601B710B820B930BFEDB6091C7
S1130EB0780180911901C4DC18C08091190183352F
S1130EC059F4609160017091610180916201909187
S1130ED06301EBDB30DD09C060E070E0CB01E5DBF2
S1130EE06091780180911901ABDC24DB29D1E09178
S1130EF06C01F0916D01EE0FFF1FE95FFE4F019051
S1130F00F081E02D099569CF8EB583608EBD8FB5D4
S1130F1082608FBD8EB588618EBD8FB580688FBDB0
S1130F208FB580628FBD8FEF93E097BD86BD089526
S1130F3087B38F7987BBE1E6F0E08081807F80838F
S1130F4087B3806687BB80818F608083E2E6F0E0B0
S1130F508081807F808380818560808308959C0167
S1130F60E2E6F0E09081907F908390819560908399
S1130F7039BD28BD3BBD2ABD08959C01E2E6F0E0E1
S1130F809081907F908390819A60908339BD28BD31
S1130F903BBD2ABD08959C01E2E6F0E09081907F7C
S1130FA090839081996090831BBC1ABC39BD28BD85
S1130FB008959C01E2E6F0E09081907F9083908117
S1130FC0966090833BBD2ABD19BC18BC0895E2E627
S1130FD0F0E08081807F808380818F6080831BBC70
S1130FE01ABC19BC18BC08951F920F920FB60F9229
S1130FF011240BB60F922F933F934F935F936F93EC
S11310007F938F939F93AF93BF93EF93FF93CF936C
S1131010DF931F92CDB7DEB78CB1898389818A3083
S113102019F089818D30C1F580917D0190917E0107
S113103001962AE030E0B9010FD3FC0180917B01D5
S113104090917C01B90108D3E817F90709F453C05A
S113105020917D0130917E018091790190917A01F6
S113106040E5429FF001439FF00D1124E158FE4FEB
S1131070E80FF91F108210927A0110927901809181
S11310807D0190917E0101966AE070E0E5D2909333
S11310907E0180937D012FC080917D0190917E011E
S11310A001962AE030E0B901D7D2FC0180917B019E
S11310B090917C01B901D0D2E817F907E1F0609171
S11310C07D0170917E018091790190917A019C015A
S11310D02F5F3F4F30937A0120937901498150E586
S11310E0569F9001579F300D112421583E4FF9010E
S11310F0E80FF91F40830F90DF91CF91FF91EF919B
S1131100BF91AF919F918F917F916F915F914F911B
S11311103F912F910F900BBE0F900FBE0F901F9019
S11311201895109290008FEC89B98BB182608BB9BD
S11311308AB188698AB908955D9BFECF8CB90895F8
S1131140CF9320917B0130917C0180917D0190911E
S11311507E012817390709F49BC020917B01309147
S11311607C01C0E5C29FC001C39F900D112481582A
S11311709E4F9F938F938EE391E09F938F93B9D269
S113118080917B0190917C01C89FF001C99FF00D73
S11311901124E158FE4F80810F900F900F900F9013
S11311A0863651F484EF91E0DADE86E48093190107
S11311B080E38093780160C080917B0190917C01F1
S11311C020E5289FF001299FF00D1124E158FE4FDE
S11311D08081823651F484EF91E0CFDE82E6809301
S11311E0190180E38093780147C080917B0190913D
S11311F07C0120E5289FF001299FF00D1124E1587E
S1131200FE4F80818C3651F48CEB92E0C4DE82E791
S11312108093190184E4809378012EC080917B012E
S113122090917C0120E5289FF001299FF00D112465
S1131230E158FE4F8081823751F48CEB92E0B9DEA5
S11312408CE48093190184E48093780115C0809123
S11312507B0190917C0120E5289FF001299FF00DEE
S11312601124E158FE4F8081833731F4B0DE83E5E9
S1131270809319011092780180917B0190917C01F7
S113128001966AE070E0E8D190937C0180937B0141
S1131290CF910895109298008FEC80939900EBE918
S11312A0F0E0808182608083EAE9F0E080818869EF
S11312B08083089590919B0095FFFCCF80939C00C0
S11312C008951F920F920FB60F9211240BB60F922E
S11312D02F933F934F935F936F937F938F939F933A
S11312E0AF93BF93EF93FF9380919C0080939F04EF
S11312F080919F04DFDFFF91EF91BF91AF919F91A8
S11313008F917F916F915F914F913F912F910F90AA
S11313100BBE0F900FBE0F901F9018950CD0EBC012
S1131320E3D040F0DAD030F021F45F3F19F0CCC0C4
S1131330511115C1CFC0F0D098F39923C9F35523A7
S1131340B1F3951B550BBB27AA27621773078407B4
S113135038F09F5F5F4F220F331F441FAA1FA9F36A
S113136033D00E2E3AF0E0E830D091505040E6955C
S1131370001CCAF729D0FE2F27D0660F771F881FBD
S1131380BB1F261737074807AB07B0E809F0BB0BAC
S1131390802DBF01FF2793585F4F2AF09E3F5105D0
S11313A068F092C0DCC05F3FECF3983EDCF38695B6
S11313B077956795B795F7959F5FC9F7880F911D46
S11313C09695879597F90895E1E0660F771F881F32
S11313D0BB1F621773078407BA0720F0621B730BE5
S11313E0840BBA0BEE1F88F7E095089504D0689437
S11313F0B111B5C0089598D088F09F5790F0B92FD7
S11314009927B751A0F0D1F0660F771F881F991F55
S11314101AF0BA95C9F712C0B13081F09FD0B1E08B
S113142008959CC0672F782F8827B85F39F0B93F9B
S1131430CCF3869577956795B395D9F73EF4909557
S11314408095709561957F4F8F4F9F4F0895E894D5
S113145009C097FB3EF490958095709561957F4FF8
S11314608F4F9F4F9923A9F0F92F96E9BB279395A6
S1131470F695879577956795B795F111F8CFFAF4B6
S1131480BB0F11F460FF1BC06F5F7F4F8F4F9F4FE7
S113149016C0882311F096E911C0772321F09EE845
S11314A0872F762F05C0662371F096E8862F70E0AB
S11314B060E02AF09A95660F771F881FDAF7880F85
S11314C09695879597F9089597F99F6780E870E056
S11314D060E008959FEF80EC089500240A941616A6
S11314E0170618060906089500240A94121613060E
S11314F0140605060895092E0394000C11F488239C
S113150052F0BB0F40F4BF2B11F460FF04C06F5FB7
S11315107F4F8F4F9F4F089557FD9058440F551F8D
S113152059F05F3F71F04795880F97FB991F61F061
S11315309F3F79F087950895121613061406551FD8
S1131540F2CF4695F1DF08C0161617061806991F44
S1131550F1CF86957105610508940895E894BB2739
S113156066277727CB0197F908950BD0C4CFB5DF51
S113157028F0BADF18F0952309F0A6CFABCF1124D9
S1131580EECFCADFA0F3959FD1F3950F50E0551F1E
S1131590629FF001729FBB27F00DB11D639FAA27C4
S11315A0F00DB11DAA1F649F6627B00DA11D661F13
S11315B0829F2227B00DA11D621F739FB00DA11D34
S11315C0621F839FA00D611D221F749F3327A00DEE
S11315D0611D231F849F600D211D822F762F6A2F8A
S11315E011249F5750408AF0E1F088234AF0EE0F0F
S11315F0FF1FBB1F661F771F881F91505040A9F71C
S11316009E3F510570F060CFAACF5F3FECF3983E48
S1131610DCF3869577956795B795F795E7959F5F82
S1131620C1F7FE2B880F911D9695879597F908951C
S1131630AA1BBB1B51E107C0AA1FBB1FA617B707F4
S113164010F0A61BB70B881F991F5A95A9F7809510
S11316509095BC01CD01089597FB072E16F40094D4
S113166006D077FD08D0E4DF07FC05D03EF4909562
S113167081959F4F0895709561957F4F0895A1E2DC
S11316801A2EAA1BBB1BFD010DC0AA1FBB1FEE1FF8
S1131690FF1FA217B307E407F50720F0A21BB30B43
S11316A0E40BF50B661F771F881F991F1A9469F7BF
S11316B060957095809590959B01AC01BD01CF011B
S11316C00895EE0FFF1F0024001C0BBE0790F69137
S11316D0E02D0994A29FB001B39FC001A39F700D98
S11316E0811D1124911DB29F700D811D1124911D26
S11316F00895CF93DF93CDB7DEB7AE014B5F5F4F55
S1131700FA0161917191AF018091A2049091A304B7
S113171003D0DF91CF9108952F923F924F925F9221
S11317206F927F928F929F92AF92BF92CF92DF92ED
S1131730EF92FF920F931F93CF93DF93CDB7DEB752
S11317402B970FB6F894DEBF0FBECDBF6C017B01A3
S11317508A01FC0117821682838181FFBFC1CE01F9
S113176001963C01F6019381F70193FD859193FF66
S113177081917F01882309F4ADC1853239F493FD49
S1131780859193FF81917F01853221F4B60190E028
S1131790D6D1E8CF912C212C312CFFE1F315D8F0D0
S11317A08B3279F038F4803279F08332A1F4232D2E
S11317B020611DC08D3261F0803369F4232D2160D6
S11317C016C0832D8260382EE32DE4603E2E2AC09D
S11317D0F32DF8601DC037FC2DC020ED280F2A30F2
S11317E040F08E32B9F436FC75C1232D2064322EBC
S11317F019C036FE06C08AE0989E200D1124922E50
S113180011C0EAE02E9E200D1124222EF32DF06249
S11318103F2E08C08C3621F4832D8068382E02C0F8
S1131820883641F4F70193FD859193FF81917F01FF
S11318308111B3CF982F9F7D9554933028F40C5F7A
S11318401F4F9FE399830DC0833631F0833771F0C6
S1131850833509F055C020C0F801808189830E5F6B
S11318601F4F88248394912C530112C02801F2E065
S11318704F0E511CF801A080B18036FE03C0692DC3
S113188070E002C06FEF7FEFC5014ED14C018201C1
S1131890F32DFF773F2E15C0280122E0420E511C84
S11318A0F801A080B18036FE03C0692D70E002C04B
S11318B06FEF7FEFC5012DD14C01F32DF0683F2E62
S11318C0820133FC19C0822D90E088169906A0F499
S11318D0B60180E290E033D12A94F5CFF50137FCCC
S11318E0859137FE81915F01B60190E028D12110E6
S11318F02A9421E0821A91088114910479F7E1C0B5
S1131900843611F0893639F5F80137FE07C0608155
S11319107181828193810C5F1F4F08C06081718146
S1131920072E000C880B990B0E5F1F4FF32DFF76CB
S11319303F2E97FF09C090958095709561957F4FD4
S11319408F4F9F4FF0683F2E2AE030E0A30133D140
S1131950882E861844C0853731F4232D2F7EB22E6D
S11319602AE030E025C0932D997FB92E8F36C1F03F
S113197018F4883579F0AEC0803719F0883721F033
S1131980A9C0E92FE061BE2EB4FE0DC0FB2DF460AA
S1131990BF2E09C034FE0AC0292F2660B22E06C00D
S11319A028E030E005C020E130E002C020E132E070
S11319B0F801B7FE07C060817181828193810C5F59
S11319C01F4F06C06081718180E090E00E5F1F4F61
S11319D0A301F1D0882E8618FB2DFF773F2E36FE0B
S11319E00DC0232D2E7FA22E891458F434FE0BC073
S11319F032FC09C0832D8E7EA82E05C0B82CA32CE2
S1131A0003C0B82C01C0B92CA4FE0FC0FE01E80D20
S1131A10F11D8081803321F49A2D997EA92E09C06D
S1131A20A2FE06C0B394B39404C08A2D867809F04C
S1131A30B394A3FC10C0A0FE06C0B21480F4280C1A
S1131A40922C9B180DC0B21458F4B60180E290E0B9
S1131A5076D0B394F8CFB21418F42B1802C0982C93
S1131A60212CA4FE0FC0B60180E390E068D0A2FE52
S1131A7016C0A1FC03C088E790E002C088E590E0AE
S1131A80B6010CC08A2D867851F0A1FE02C08BE20B
S1131A9001C080E2A7FC8DE2B60190E050D0891429
S1131AA030F4B60180E390E04AD09A94F8CF8A9457
S1131AB0F301E80DF11D8081B60190E040D0811062
S1131AC0F6CF222009F44ECEB60180E290E037D062
S1131AD02A94F7CFF6018681978102C08FEF9FEF9A
S1131AE02B960FB6F894DEBF0FBECDBFDF91CF911A
S1131AF01F910F91FF90EF90DF90CF90BF90AF9028
S1131B009F908F907F906F905F904F903F902F9019
S1131B100895FC010590615070400110D8F780953C
S1131B2090958E0F9F1F0895FC01615070400190A5
S1131B300110D8F7809590958E0F9F1F08950F93ED
S1131B401F93CF93DF93FB01238121FD03C08FEF0C
S1131B509FEF2CC022FF16C0468157812481358116
S1131B604217530744F4A081B1819D012F5F3F4F79
S1131B70318320838C93268137812F5F3F4F3783B6
S1131B80268314C08B01EC01FB010084F185E02D58
S1131B900995892BE1F6D80116968D919C9117979A
S1131BA0019617969C938E931697CE01DF91CF9151
S1131BB01F910F910895FA01AA27283051F120317D
S1131BC081F1E8946F936E7F6E5F7F4F8F4F9F4FCD
S1131BD0AF4FB1E03ED0B4E03CD0670F781F891F0F
S1131BE09A1FA11D680F791F8A1F911DA11D6A0FDD
S1131BF0711D811D911DA11D20D009F468943F9190
S1131C002AE0269F11243019305D3193DEF6CF018E
S1131C100895462F4770405D4193B3E00FD0C9F754
S1131C20F6CF462F4F70405D4A3318F0495D31FDC1
S1131C304052419302D0A9F7EACFB4E0A695979514
S1131C40879577956795BA95C9F7009761057105EA
S1131C5008959B01AC010A2E069457954795379534
S1131C602795BA95C9F7620F731F841F951FA01D8E
S1091C700895F894FFCF73
S1131C766400640064005361069F060000000200CD
S1131C860000009C080000000053C0F9A4B099921B
S1131C9682D88098BF8E83C7AF92039F250D99493A
S1131CA6411F0109029E240C9848401E0008636DDA
S10B1CB6643A2025730D0A00B5
S9030000FC
