:1000000045C0000060C000005EC000005CC0000091
:100010005AC0000058C0000056C0000054C0000084
:1000200052C0000050C00000B7C000004CC000002B
:100030004AC0000048C0000046C0000044C00000A4
:1000400042C0000040C000003EC000003CC00000B4
:100050003AC0000038C0000036C0000034C00000C4
:1000600032C0000030C000002EC000002CC00000D4
:100070002AC0000028C0000026C0000024C00000E4
:1000800022C0000020C000001EC0000011241FBEBE
:10009000CFEFD0E1DEBFCDBF11E0A0E0B1E0ECE7F3
:1000A000F8E000E00BBF02C007900D92A432B10748
:1000B000D9F721E0A4E2B1E001C01D92A535B20755
:1000C000E1F7B3D3D9C39CCF81B3877881BB0895BF
:1000D000CF92DF92EF92FF9220B330E002C03595CD
:1000E00027956A95E2F731E020FF30E0232FFC01ED
:1000F000E85CFE4F40813417B9F0FC01E85CFE4F2C
:10010000308340913F0150914001609141017091D5
:100110004201FC01EE0FFF1FEE0FFF1FE85DFE4FD7
:10012000408351836283738340913F01509140012A
:100130006091410170914201FC01EE0FFF1FEE0F33
:10014000FF1FE85DFE4FC080D180E280F3804C1934
:100150005D096E097F09443151056105710578F02B
:10016000FC01EC5DFE4F3081231761F0FC01EC5D7A
:10017000FE4F2083211109C081E090E008C080E09B
:1001800090E005C080E090E002C080E090E0FF9049
:10019000EF90DF90CF9008951F920F920FB60F92BD
:1001A00011248F939F93AF93BF9382EC84BD809172
:1001B0003F0190914001A0914101B091420101960F
:1001C000A11DB11D80933F0190934001A093410177
:1001D000B0934201BF91AF919F918F910F900FBE4D
:1001E0000F901F90189582EC84BD85B5887F85BDE2
:1001F00085B5846085BD87B7806487BF789408958E
:100200009FEF94BB87B3806F87BB95BB88B38F701C
:1002100088BB0895CF93DF93C42F2AE030E040E0FD
:1002200050E008D3D62FCA01B90126E030E040E003
:1002300050E000D380913E01813079F028F0823087
:10024000A9F0833029F135C080E888BBED2FF0E0BC
:10025000E05FFE4F808185BB2CC080E488BBE62F29
:10026000F0E0E05FFE4F808185BB23C080E288BB69
:100270004C2F50E0FA01E85FFE4F8081803229F474
:10028000FA01E050FF4F808101C08FEF85BB11C0A4
:1002900080E188BB4C2F50E0FA01E85FFE4F80817F
:1002A000803129F4FA01E050FF4F808101C08FEFC7
:1002B00085BB80913E0190E00196837090789923F0
:1002C00024F401978C6F9F6F019680933E01DF911C
:1002D000CF9108954F925F926F927F928F929F92EB
:1002E000AF92BF92CF92DF92EF92FF921F93CF9384
:1002F000DF936B017C01142F0F2EFAE04F2E512C4F
:10030000612C712CF02DA301920194D2D62F0F2EC7
:10031000F6E08F2E912CA12CB12CF02DCA01B90141
:10032000A501940187D2C62FC701B6012CE330E0A6
:1003300040E050E07FD2CA01B901A30192017AD214
:10034000762EC701B60128E532E040E050E072D2D7
:10035000CA01B901A50194016DD280913D0181309E
:1003600079F028F08230A9F0833011F129C080E8BB
:1003700088BBED2FF0E0E05FFE4F808185BB20C0A1
:1003800080E488BBEC2FF0E0E05FFE4F808185BB0E
:1003900017C080E288BB112321F0E72DF0E03A96E8
:1003A00002C0E72DF0E0E05FFE4F808185BB08C012
:1003B00080E188BBE62FF0E0E05FFE4F808185BBE7
:1003C00080913D0190E0019683709078992324F408
:1003D00001978C6F9F6F019680933D01DF91CF91C4
:1003E0001F91FF90EF90DF90CF90BF90AF909F90C4
:1003F0008F907F906F905F904F9008958F929F9213
:10040000AF92BF92CF92DF92EF92FF921F93CF9362
:10041000DF934B015C010F2EFAE0CF2ED12CE12CA3
:10042000F12CF02DA701960105D2CA01B901A7014F
:10043000960100D2162FC501B40124E630E040E059
:1004400050E0F8D1CA01B901A7019601F3D1D62F26
:10045000C501B40128EE33E040E050E0EBD1CA0121
:10046000B901A7019601E6D1C62FC501B40120E16B
:1004700037E240E050E0DED1CA01B901A7019601A0
:10048000D9D180913C01813079F028F08230A9F0F7
:100490008330E1F023C080E888BBE12FF0E0E05F2B
:1004A000FE4F808185BB1AC080E488BBED2FF0E051
:1004B000E05FFE4F808185BB11C080E288BBEC2FDE
:1004C000F0E0E65EFE4F808185BB08C080E188BB1E
:1004D000E62FF0E0E05FFE4F808185BB80913C011C
:1004E00090E0019683709078992324F401978C6FA3
:1004F0009F6F019680933C01DF91CF911F91FF90F8
:10050000EF90DF90CF90BF90AF909F908F90089525
:100510001092510110925201109253011092540105
:1005200010924D0110924E0110924F011092500105
:1005300010924C01109248011092490110924A0108
:1005400010924B0110924401109245011092460105
:100550001092470110924301C12CD12C7601D0E0BA
:10056000C0E001C0D1E0C13081F018F0C23009F123
:1005700029C040914C0160914D0170914E018091D4
:100580004F0190915001A6DE1DC010914301609172
:1005900048017091490180914A0190914B0128EEE8
:1005A00033E040E050E046D1CA01B901412F32DECC
:1005B00009C060914401709145018091460190917C
:1005C00047011CDF80913F0190914001A0914101C2
:1005D000B0914201C816D906EA06FB0609F4C3CF5A
:1005E000C0903F01D0904001E0904101F090420165
:1005F0008091510190915201A0915301B091540109
:100600000196A11DB11D8093510190935201A093B9
:100610005301B09354018091510190915201A091E6
:100620005301B0915401883E9340A105B105D8F023
:1006300010925101109252011092530110925401E4
:1006400080914D0190914E01A0914F01B0915001C8
:100650000196A11DB11D80934D0190934E01A09371
:100660004F01B09350018091510190915201A0919E
:100670005301B0915401843F9140A105B10539F473
:1006800090914C0181E0911180E080934C01C13048
:1006900091F58091480190914901A0914A01B09152
:1006A0004B010196A11DB11D809348019093490112
:1006B000A0934A01B0934B016091480170914901A8
:1006C00080914A0190914B0124E630E040E050E0F7
:1006D000B1D0672B682B692B71F48091430190E0B6
:1006E000019687709078992324F40197886F9F6F03
:1006F000019680934301C230A9F4DD2399F08091E3
:10070000440190914501A0914601B09147010196A5
:10071000A11DB11D8093440190934501A093460112
:10072000B093470163E070E080E090E0D1DC892B7A
:10073000E1F0C13071F018F0C230B1F016C0109283
:1007400048011092490110924A0110924B01C1E0F8
:100750000CC0109244011092450110924601109273
:100760004701D0E0C2E001C0C0E064E070E081E099
:1007700090E0AEDC892B31F0C23021F481E0D11160
:1007800080E0D82F65E070E082E090E0A1DC892B6A
:1007900009F4E9CEC23019F5D13051F41092440178
:1007A000109245011092460110924701D0E0DBCE35
:1007B0008091440190914501A0914601B09147017B
:1007C000892B8A2B8B2B09F4CDCE109244011092E9
:1007D00045011092460110924701D0E0C4CE10921C
:1007E0005101109252011092530110925401109233
:1007F0004D0110924E0110924F0110925001109233
:100800004C01109248011092490110924A01109235
:100810004B01109243011092440110924501109235
:10082000460110924701D0E09ECEEADC4DDCDBDCD5
:100830006FDEFFCFA1E21A2EAA1BBB1BFD010DC06C
:10084000AA1FBB1FEE1FFF1FA217B307E407F50780
:1008500020F0A21BB30BE40BF50B661F771F881F5C
:10086000991F1A9469F760957095809590959B01F2
:0C087000AC01BD01CF010895F894FFCF4A
:10087C00FEFEDFEFF7F7FBFD2010101010202020FC
:10088C00C0F9A4B0999282D880984079243019127A
:04089C0002580018E6
:00000001FF
