:1000000045C0000060C000005EC000005CC0000091
:100010005AC0000058C0000056C0000054C0000084
:1000200052C0000050C000004EC000004CC0000094
:100030004AC0000048C0000046C0000044C00000A4
:1000400042C0000040C000003EC000003CC00000B4
:100050003AC0000038C0000036C0000034C00000C4
:1000600032C0000030C000002EC000002CC00000D4
:100070002AC0000028C0000026C0000024C00000E4
:1000800022C0000020C000001EC0000011241FBEBE
:10009000CFEFD0E1DEBFCDBF11E0A0E0B1E0ECE5F5
:1000A000F7E000E00BBF02C007900D92A432B10749
:1000B000D9F721E0A4E2B1E001C01D92AD33B2074F
:1000C000E1F724D349C39CCF81B3877881BB0895DE
:1000D00020B3422F50E021E030E002C0220F331F56
:1000E0006A95E2F7242335232115310571F0FC01CF
:1000F000EC5DFE4F4081411108C0FC01EC5DFE4FFC
:1001000021E0208380E090E00895FC01EC5DFE4F4B
:100110004081413049F4232B51F4FC01EC5DFE4F4A
:10012000108281E090E0089580E090E0089580E002
:1001300090E008959FEF94BB87B3806F87BB95BB1A
:1001400088B38F7088BB0895CF93DF93C42F2AE0C4
:1001500030E040E050E0DED2D62FCA01B90126E0FF
:1001600030E040E050E0D6D280912A01813079F031
:1001700028F08230A9F0833029F135C080E888BBAF
:10018000ED2FF0E0E05FFE4F808185BB2CC080E466
:1001900088BBE62FF0E0E05FFE4F808185BB23C087
:1001A00080E288BB4C2F50E0FA01E85FFE4F80816F
:1001B000803229F4FA01E050FF4F808101C08FEFB7
:1001C00085BB11C080E188BB4C2F50E0FA01E85F8D
:1001D000FE4F8081803129F4FA01E050FF4F808189
:1001E00001C08FEF85BB80912A0190E0019683705A
:1001F0009078992324F401978C6F9F6F01968093D8
:100200002A01DF91CF9108954F925F926F927F9272
:100210008F929F92AF92BF92CF92DF92EF92FF9216
:100220001F93CF93DF936B017C01142F0F2EFAE005
:100230004F2E512C612C712CF02DA30192016AD20A
:10024000D62F0F2EF6E08F2E912CA12CB12CF02D55
:10025000CA01B901A50194015DD2C62FC701B6013B
:100260002CE330E040E050E055D2CA01B901A301CF
:10027000920150D2762EC701B60128E532E040E067
:1002800050E048D2CA01B901A501940143D280913E
:100290002901813079F028F08230A9F0833011F102
:1002A00029C080E888BBED2FF0E0E05FFE4F808141
:1002B00085BB20C080E488BBEC2FF0E0E05FFE4F00
:1002C000808185BB17C080E288BB112321F0E72D18
:1002D000F0E03A9602C0E72DF0E0E05FFE4F80814B
:1002E00085BB08C080E188BBE62FF0E0E05FFE4FF1
:1002F000808185BB8091290190E001968370907880
:10030000992324F401978C6F9F6F019680932901A4
:10031000DF91CF911F91FF90EF90DF90CF90BF9032
:10032000AF909F908F907F906F905F904F900895C7
:100330008F929F92AF92BF92CF92DF92EF92FF92F5
:100340001F93CF93DF934B015C010F2EFAE0CF2E6A
:10035000D12CE12CF12CF02DA7019601DBD1CA01A3
:10036000B901A7019601D6D1162FC501B40124E623
:1003700030E040E050E0CED1CA01B901A7019601BA
:10038000C9D1D62FC501B40128EE33E040E050E0DA
:10039000C1D1CA01B901A7019601BCD1C62FC501BF
:1003A000B40120E137E240E050E0B4D1CA01B90124
:1003B000A7019601AFD180912801813079F028F012
:1003C0008230A9F08330E1F023C080E888BBE12FC0
:1003D000F0E0E05FFE4F808185BB1AC080E488BBFF
:1003E000ED2FF0E0E05FFE4F808185BB11C080E221
:1003F00088BBEC2FF0E0E65EFE4F808185BB08C035
:1004000080E188BBE62FF0E0E05FFE4F808185BB96
:100410008091280190E0019683709078992324F4CC
:1004200001978C6F9F6F019680932801DF91CF9188
:100430001F91FF90EF90DF90CF90BF90AF909F9073
:100440008F9008951092390110923A0110923B0159
:1004500010923C0110923501109236011092370132
:10046000109238011092340110922C0110922D013B
:1004700010922E0110922F0110922B01D0E0C0E0BB
:1004800001C0D1E0C13081F018F0C23001F128C0C4
:10049000609135017091360180913701909138015A
:1004A00040913401B1DE1CC0609130017091310186
:1004B000809132019091330128EE33E040E050E02A
:1004C00029D1CA01B90140912B013EDE09C06091DA
:1004D0002C0170912D0180912E0190912F0128DF28
:1004E0008FE99FE00197F1F700C00000809139018A
:1004F00090913A01A0913B01B0913C010196A11D60
:10050000B11D8093390190933A01A0933B01B093C0
:100510003C01883E9340A105B105D8F01092390105
:1005200010923A0110923B0110923C0180913501EA
:1005300090913601A0913701B09138010196A11D2B
:10054000B11D8093350190933601A0933701B0938C
:1005500038018091390190913A01A0913B01B0910D
:100560003C01843F9140A105B10539F481E09091AF
:100570003401911180E080933401C13069F580919C
:10058000300190913101A0913201B0913301BC0151
:10059000CD016F5F7F4F8F4F9F4F609330017093FE
:1005A0003101809332019093330124E630E040E042
:1005B00050E0B0D0672B682B692B71F480912B0130
:1005C00090E0019687709078992324F40197886FC2
:1005D0009F6F019680932B01C230A9F4DD2399F01F
:1005E00080912C0190912D01A0912E01B0912F01AD
:1005F0000196A11DB11D80932C0190932D01A09314
:100600002E01B0932F0163E070E080E090E060DDA8
:10061000892BE1F0C13071F018F0C230B1F016C092
:100620001092300110923101109232011092330178
:10063000C1E00CC010922C0110922D0110922E01DD
:1006400010922F01D0E0C2E001C0C0E064E070E091
:1006500081E090E03DDD892B31F0C23021F481E072
:10066000D11180E0D82F65E070E082E090E030DDCD
:10067000892B09F407CFC23019F5D13051F410920B
:100680002C0110922D0110922E0110922F01D0E01A
:10069000F9CE80912C0190912D01A0912E01B09165
:1006A0002F01892B8A2B8B2B09F4EBCE10922C0176
:1006B00010922D0110922E0110922F01D0E0E2CE67
:1006C0001092390110923A0110923B0110923C01B4
:1006D00010923501109236011092370110923801B4
:1006E00010923401109230011092310110923201B7
:1006F0001092330110922B0110922C0110922D01B7
:1007000010922E0110922F01D0E0BCCE13DDDCDC64
:1007100099DEFECFA1E21A2EAA1BBB1BFD010DC064
:10072000AA1FBB1FEE1FFF1FA217B307E407F507A1
:1007300020F0A21BB30BE40BF50B661F771F881F7D
:10074000991F1A9469F760957095809590959B0113
:0C075000AC01BD01CF010895F894FFCF6B
:10075C00FEFEDFEFF7F7FBFD20101010102020201D
:10076C00C0F9A4B0999282D880984079243019129B
:04077C000258001807
:00000001FF
